:100000000C94C5030C94E2030C94E2030C94E203F9
:100010000C94E2030C94E2030C94E2030C94E203CC
:100020000C94E2030C94E2030C94CB0E0C947F131B
:100030000C9421250C94E2030C94E2030C94E2034B
:100040000C94E2030C94E2030C94E2030C94E2039C
:100050000C94E2030C94A20F0C94E2030C94E203C0
:100060000C94E2030C94E2030C94E2030C94E2037C
:100070000C94E2030C94E2030C94E2030C94E2036C
:100080000C94E2030C94E2030C94E2030C94E2035C
:100090000C94E2030C94E2030C94E2030C94E2034C
:1000A0000C94E2030C94E2030C94E2030501098032
:1000B000A101850319012AB700150126B700950192
:1000C00075108100C0050C0901A101850419012AE0
:1000D000A002150126A002950175108100C005013E
:1000E0000906A1018505050719E029E71500250185
:1000F0009508750181020507190029EF15002501F2
:1001000095F075018102050819012905950575010C
:100110009102950175039101C005010902A1010930
:1001200001A100050919012905150025019505758D
:10013000018102950175038101050109300931151D
:1001400081257F95027508810609381581257F95DF
:100150000175088106050C0A38021581257F950175
:1001600075088106C0C005010906A101050719E04F
:1001700029E715002501950875018102950175088B
:1001800081010507190029FF150026FF0095067556
:100190000881000508190129059505750191029549
:1001A0000175039101C00000000000000000000084
:1001B000000000000000000000007E0F00D4FFFFE0
:1001C000FFC70000007800000000000000002A2B9C
:1001D00028000000000000000000000000000000F7
:1001E0000029000000002C1E342021222434262760
:1001F000252E362D3738271E1F2021222324252681
:100200003333362E37381F0405060708090A0B0C4E
:100210000D0E0F101112131415161718191A1B1C96
:100220001D2F3130232D350405060708090A0B0C54
:100230000D0E0F101112131415161718191A1B1C76
:100240001D2F3130354C0102E00102E101012C018A
:1002500003E10103E0000102E00101050103E00008
:100260000102E30102E101010D0103E10103E300E9
:1002700029002B003500E100E00000001E00140002
:1002800004001D0001002C081F001A0016431B006B
:100290002D5D2F5D20000800074206002E5D2C68B2
:1002A0002100150009411900E20001002200170099
:1002B0000A00050000000454230034000000005729
:1002C0000000390024003402000001570000A9009A
:1002D00025001C000B00110000004900260018003A
:1002E0000D0010005000AA0027000C000E00360080
:1002F000510028782D0012000F00370052004C00EA
:100300002E001300330038004F00A8002A003100EF
:1003100028003400095D0000010001000100010017
:1003200001000000010001000100010001000100C6
:1003300001000100010001000100010001000100B5
:1003400001000100010001000100010001000100A5
:100350000100010001000100010001000000010096
:100360000100010000000100000001000100010087
:1003700000000100000001000100350234003402D9
:100380000000010001002F0226022F0001000100E1
:100390000100300227023000010001000100330299
:1003A0002D02360201000100010031022E02370247
:1003B0000100010001000100010001000100000036
:1003C0000100010001000100010000000100010026
:1003D0000100010001000100010001000100010015
:1003E0000100010001000100010001000100010005
:1003F00001000100010001000100010001000100F5
:1004000001000100000001000100010000000100E6
:1004100000000100010001000000010000000100D7
:1004200001004A00500001000000010001004E00E0
:10043000510001000100010001004B0052000100C9
:100440000100010001004D004F000100010001000A
:100450000100010001000100010001000100010094
:100460000100010001000000010001000100010085
:100470000100000001000100010001000100010075
:1004800001000100010001000100F600010001006F
:10049000010001000100F400010001000100010061
:1004A0000100010001000100010001000000010045
:1004B00001001A5C0000195C000001000100185CDA
:1004C0000000175C000001000100FB00F2000100C9
:1004D000000001000100FA00F1000100010001002C
:1004E0000100F900F00001000100F5000100FC002E
:1004F000F3000100010001000100470001000100BC
:10050000010001000100FF00FE00FD0001000000ED
:100510000100010001000100010000003A0001009B
:1005200001000100010001003B0001000100010089
:10053000010001003C000100010001000100010078
:100540003D00010001000100010001003E0001002A
:1005500001000100000001003F0001000000010057
:100560000000010040000100000001000000010047
:1005700041000100010001000000010042000100F3
:100580000100010001000100430001000100010021
:100590000100010044000100010001000100010010
:1005A00045000100010001000100010001000100FF
:1005B00001000100010000000A0000000000030625
:1005C000B200080001000000A800080002000300BB
:1005D000A0001400030057494E555342000000008C
:1005E0000000000000008400040007002A0044000E
:1005F0006500760069006300650049006E007400C4
:1006000065007200660061006300650047005500E8
:10061000490044007300000050007B003900440092
:100620004200370046003100460044002D003700EC
:100630004500370041002D00340030003000380004
:100640002D0039003300360042002D0036004200F4
:1006500041003600430031003900410033003000D2
:10066000380063007D00000000001B0301636F6E13
:100670006669677572652E6572676F646F782D6540
:100680007A2E636F6D0009026B00040100A0FA0965
:1006900004000001030101000921110100012240B1
:1006A000000705810308000A090401000103010293
:1006B00000092111010001224D00070582030800F5
:1006C0000A090402000103000000092111010001D0
:1006D000226D000705830320000A0904030002FFBE
:1006E00000000007058403400005070505034000DE
:1006F0000512011002000000089732744901000140
:1007000002000116034500720067006F0044006F8D
:10071000007800200045005A00000030035A0053C2
:10072000004100200054006500630068006E006F07
:10073000006C006F006700790020004C00610062CF
:10074000007300200049006E0063000000040309EC
:1007500004050F3900021C100500DF60DDD8894553
:10076000C74C9CD2659D9E648A9F00000306B20020
:1007700045001810050038B60834A909A0478BFDBC
:10078000A0768815B6650001420011241FBECFEF88
:10079000DAE0DEBFCDBF11E0A0E0B1E0EAE4F5E5CC
:1007A00002C005900D92A639B107D9F722E0A6E95B
:1007B000B1E001C01D92AB3CB207E1F70E94B3214A
:1007C0000C94782A0C940000E8EDF0E080818E7F94
:1007D00080831092E2001092DA001092E100A0EE05
:1007E000B0E08C9181608C9380818F77808319BC7D
:1007F000A7EDB0E08C918E7F8C9380818F7E80837B
:100800001092950208952091E4003091E50095E65C
:10081000A9012091EC00822F817020FF06C08091F9
:10082000E80080FF06C080E008952091E80022FDE6
:100830001AC08091BA02882389F0853089F08091AE
:10084000EB0085FD0FC02091E4003091E5004217D8
:100850005307F9F29150E1F684E0089582E008959B
:1008600083E0089581E00895EF92FF920F931F9324
:10087000CF937C018B010E940304C82F882371F061
:100880008C2FCF911F910F91FF90EF900895F7015A
:1008900081917F018093F10001501109011511052B
:1008A00079F38091E80085FDF2CF8091E8008E77A2
:1008B0008093E8000E940304882381F3C82FE0CFCF
:1008C0008091BC0287FF13C08091E80082FF06C0C0
:1008D0008091E8008B778093E80004C08091BA0291
:1008E0008111F2CF08958091BA028823D9F38091C3
:1008F000E80080FFF8CF8091E8008E77ECCF982F4A
:100900009093E900242F762F50E0891731F07091F1
:10091000EC002091ED005091F00021FD07C09F5F99
:10092000973071F78093E90081E008953091EB00F2
:100930003E7F3093EB003091ED003D7F3093ED0032
:100940003091EB0031603093EB007093EC0020931A
:10095000ED005093F0002091EE0027FDE0CF80E005
:100960000895CF92DF92EF92FF920F931F93CF9350
:10097000DF93C8EDD0E088818F7E8883E7EDF0E0DB
:1009800080818160808384E082BF81E080939502D2
:1009900088818E7F888302EE10E0F8011082109229
:1009A000DA0081EEC82ED12CF601108288818F7773
:1009B000888388818068888388818F7D888319BC3B
:1009C0001092BA021092BB021092B9021092B802B1
:1009D00090EEE92EF12CF70180818B7F8083888156
:1009E0008160888342E060E080E00E947F04F6013D
:1009F00080818E7F8083F801808181608083808107
:100A000088608083F70180818E7F80838881806108
:100A10008883DF91CF911F910F91FF90EF90DF902E
:100A2000CF900895FC018091C2029091C302861775
:100A30009707A0F06115710529F48091E8008E7781
:100A40008093E80090E06115710551F4911108C0A0
:100A50008091E80082FF35C080E00895BC01F2CFAC
:100A60008091BA028823C9F18530C9F18091E800EC
:100A700083FD31C08091E80082FDEACF8091E800DB
:100A800080FFE1CF8091F3002091F200382F6115B3
:100A9000710519F02830310558F091E02830310502
:100AA00009F090E08091E8008E778093E800CBCF4A
:100AB00084918093F1003196615071092F5F3F4F0F
:100AC000E6CF8091BA02882341F0853041F08091D1
:100AD000E80083FFBDCF81E0089582E0089583E0C0
:100AE0000895FC018091C2029091C3028617970776
:100AF000A0F06115710529F49091E8009E7790931C
:100B0000E80090E06115710551F4911108C08091E1
:100B1000E80082FF34C080E00895BC01F2CF8091EC
:100B2000BA028823C1F18530C1F18091E80083FDCC
:100B300030C08091E80082FDEACF8091E80080FF1C
:100B4000E1CF8091F3002091F200382F61157105FB
:100B500019F02830310558F091E02830310509F0BE
:100B600090E02091E8002E772093E800CBCF819190
:100B70008093F100615071092F5F3F4FE7CF809163
:100B8000BA02882341F0853041F08091E80083FF6C
:100B9000BECF81E0089582E0089583E008958091BA
:100BA000970208952091BA02243091F42093E9002D
:100BB00070E050E040E00E943404882321F010925D
:100BC0009302109294028091E8008E778093E8005F
:100BD000089590917A02803F59F480917B0287FFBB
:100BE0000DC010927B0291110BC01092760208C0CA
:100BF000813F81F480917B0218169CF3992381F048
:100C000080917C0290917D02892B09F064C0109242
:100C100073020895823F49F497FFF0CF10927A0251
:100C200080917B028111ECCFE0CF833F19F419163C
:100C3000ACF3E4CF20917C02893F29F41216F4F63C
:100C400010927C02DBCF8A3F19F427FFD7CFF8CF71
:100C500020917D028B3F29F427FFD0CF10927D0297
:100C6000CDCF8C3F19F41216CCF3C8CF843F31F4AA
:100C7000809179028E7F80937902C0CF853F21F4E5
:100C8000809179028D7FF7CF863F21F480917902A0
:100C90008B7FF1CF873F21F480917902877FEBCF63
:100CA000883F21F4809179028F7EE5CF8D3F31F42A
:100CB00080914B028E7F80934B02A0CF8E3F21F418
:100CC00080914B028D7FF7CF8F3F09F097CF8091B6
:100CD0004B028B7FF0CF089580914B0280FD1AC0AC
:100CE00081FD14C082FD14C080917302882391F0AD
:100CF0008C3370F427E0829FC00111246CE370E014
:100D00000E941526862F672B29F0089583E0089509
:100D100087E0089581E0089580914B0280FD16C020
:100D200081FD16C082FD18C080917602882391F063
:100D30008C3390F423E2829FC00111246CE370E0B5
:100D40000E941526862F672B49F0089588E00895A4
:100D500081E1089585E0089583E2089581E0089592
:100D6000803F31F40E948C06819580937B02089528
:100D7000813F19F40E948C06F8CF823F31F40E9423
:100D80008C06819580937A020895833F19F40E941E
:100D90008C06F8CF893F29F40E946C0680937C0270
:100DA00008958A3F21F40E946C068195F7CF8B3F0E
:100DB00031F40E946C06819580937D0208958C3FEA
:100DC00019F40E946C06F8CF843F31F480917902C7
:100DD0008160809379020895853F21F480917902A2
:100DE0008260F7CF863F21F4809179028460F1CF51
:100DF000873F21F4809179028860EBCF883F21F40E
:100E0000809179028061E5CF8D3F31F480914B0272
:100E1000816080934B0208958E3F21F480914B02B4
:100E20008260F7CF8F3FB9F780914B028460F1CF9A
:100E30009C014FB7F8948091470290914802A0918D
:100E40004902B0914A024FBF821B930B0895209133
:100E500043012223C9F02091600227FF15C0E62F2D
:100E6000E695E695E695EE31D8F4E80FF92FF11DF9
:100E7000677021E030E001C0220F6A95EAF7209503
:100E80008281282322830895FC01329608962191BD
:100E9000621303C0DF0111971C92E817F907B9F735
:100EA0000895209143012223C1F02091600227FF81
:100EB00014C0E62FE695E695E695EE31F8F4E80FD6
:100EC000F92FF11D677021E030E001C0220F6A9513
:100ED000EAF78281822B82830895FC0132962FEFFC
:100EE00030E04191641751F02F3F19F4411101C0D6
:100EF000232F3F5F3630A9F72F3F09F40895820F63
:100F0000911D27FD9A95FC0162830895CF92DF928F
:100F1000EF92FF926C01EE24FF2420E0C114D10473
:100F2000E104F10419F0C701B60120E1C72ED82E63
:100F3000E92EFF24C114D104E104F10419F0285F63
:100F4000C701B6016B017C0154E0F694E794D79495
:100F5000C7945A95D1F7C114D104E104F10419F0F2
:100F60002C5FC701B6016B017C0142E0F694E79467
:100F7000D794C7944A95D1F7C114D104E104F10480
:100F800019F02E5FC701B6019695879577956795FD
:100F9000672B682B692B09F02F5F822FFF90EF9052
:100FA000DF90CF9008958091420281111092420209
:100FB000089580959091410298239093410208955D
:100FC00080959091400298239093400208958091DB
:100FD000400290914102892B90913F02892B80938E
:100FE0009601909142029923A1F0892B809396015A
:100FF00080914301882341F18091600287FF24C0E2
:101000008EE1E8E9F1E090E0815000F591110E9455
:10101000D307E0916202F09163023097E1F0809192
:101020004301882359F08091600287FF07C08091B7
:1010300096018093970185E0809396010280F38169
:10104000E02D86E991E0099486E0DBCF219122230F
:10105000D9F29F5FD9CF0895E92FEE0FE90FEE0F78
:101060008E0F982F977086958695869525E0829F9E
:10107000F0011124E95FFD4F50E040E080E0219154
:1010800030E0092E02C0369527950A94E2F72170C8
:101090003327042E01C0220F0A94EAF7822B4F5FF8
:1010A0005F4F4530510559F70895E92FEE0FE90FCD
:1010B000EE0F8E0F982F977041E001C0440F9A9564
:1010C000EAF786958695869595E0899FF00111242B
:1010D000E95FFD4F30E020E070E05191DF011197B2
:1010E000CB01022E02C0969587950A94E2F7817093
:1010F00081958527842385278C932F5F3F4F25304B
:10110000310559F70895809106029091D501981301
:1011100001C008958F5F8770FACF882321F00E9465
:10112000D9070C94E7070895882339F0909141027C
:10113000982B909341020C94E7070895882321F09F
:101140000E94E0070C94E7070895882339F09091F6
:101150004002982B909340020C94E7070895209149
:10116000C6013091C7012817390771F09093C70164
:101170008093C601E0916202F0916302309721F002
:101180000084F185E02D099408952091C4013091E7
:10119000C5012817390771F09093C5018093C401E8
:1011A000E0916202F0916302309721F00680F781AE
:1011B000E02D09940895E0916202F0916302309766
:1011C00021F00190F081E02D099480E00895CF9303
:1011D000DF93EC0181E0898B809140029F81892B14
:1011E00080934002809141029885892B809341022F
:1011F0000E94E707EA81FB81309739F06C897D898D
:10120000CE010696DF91CF910994DF91CF91089599
:10121000EF92FF920F931F93CF93DF93EC018A8598
:10122000811134C0EB80FC8087E5F81A26E12E9D01
:10123000C0012F9D900D1124DC01AA5FBE4F1496B2
:10124000ED91FC911597309731F054966D917C910A
:10125000845F9E4F099586E18E9D80018F9D100DC4
:1012600011240A5F1E4FF80187810E94E007F801F0
:1012700080850E94D9070E94E707188219861B867D
:101280001E821D821092C9011092C801DF91CF9178
:101290001F910F91FF90EF9008959091600292FF3F
:1012A00006C0282F28712830F9F4877F846093FFC7
:1012B00006C0282F28712831F1F4877E846120919F
:1012C000610220FF06C0382F38713830D9F4877F8B
:1012D000816021FF06C0282F28712831D1F4877E34
:1012E000816194FD877E0895282F24712430F9F6BA
:1012F0008B7F8860DCCF282F2471243101F78B7E0F
:101300008861DDCF382F3171313019F78E7F8860D9
:10131000E0CF282F2171213121F78E7E8861E1CF26
:10132000CF93DF93972F70E026E0929F600D711DA1
:101330001124FB0134E5839FE00DF11D1124EE0F14
:10134000FF1FE059FD4FC591D491CE01C238D105A0
:10135000B9F1E8F5C133D10509F499C050F5C932A6
:10136000D10509F48DC0CA32D10509F497C0C11561
:1013700021E5D20708F0BFC0C11530E5D30708F05A
:1013800016C1C83ED10508F09DC0C03ED10568F524
:10139000C83AD10508F089C0C53AD10508F0FFC0A8
:1013A000C130D10511F1209709F443C02497E8F426
:1013B00040C0C533D10509F45CC0C933D105B9F6C5
:1013C00020916002237089F080EE90E00EC0C33E51
:1013D000D10591F168F4C03ED105F9F0C23ED105C6
:1013E00031F62091600222FD20C0DF91CF91089557
:1013F000C63ED10561F1C73ED10581F1C43ED1059C
:1014000009F0B5CF2091610221FFEFCF80916002FA
:1014100084FD0FC087EE90E0E8CF2091600220FDB0
:1014200012C13091610230FFE0CF83EE90E024FFE3
:10143000DCCF90E080E0D9CF2091600222FD06C190
:101440003091610230FDC0CF24FFCFCFF2CF209189
:10145000600223FFCACF24FDECCFDCCF20916002D5
:1014600023FDF7C03091610231FFEECF84EE90E0B2
:10147000BCCF2091600225FFB8CF89E290E0B5CFC4
:101480002091600225FFB1CF85E390E0AECF20919F
:10149000600226FFAACF8AE290E0A7CF20916002E7
:1014A00026FFA3CF81E390E0A0CFCF3BD10508F684
:1014B000C85AD0E0CC0FDD1FC85ADE4F8881998111
:1014C000946493CFC11520E2D20760F4C11531E0D6
:1014D000D30708F08ACFCE019065C03FD10508F050
:1014E00084CFA7CFC11580E4D80708F4A2CFCE01DE
:1014F0009F70906A7ACFC11595E5D90710F5C1158F
:1015000024E5D20708F088C0C11533E5D30708F0F9
:101510006FC0C11582E5D80708F465C09E0123702D
:10152000332781E090E002C0880F991F2A95E2F7E7
:10153000C695C69520E2C29FE00111248C2B9D2BFD
:1015400050C0C11599E5D907A0F4C11528E5D20707
:1015500008F067C0C11536E5D30708F06ACF8C2FB5
:101560000E944D0990E0982F882788279F719062EC
:101570003CCFC1158AE5D80708F458C0CE01905673
:101580008115904208F055CF8D2F8F710E944D0923
:1015900090E0982F882788279F718C2BE8CFC55A19
:1015A000D0E0CB5ADE4F888190E090641ECF9E0140
:1015B000E4E036952795EA95E1F723708C2F869520
:1015C0008695837030E2839FC0011124922BC370F3
:1015D00021E030E002C0220F331FCA95E2F7822BD0
:1015E000932B9C6802CF9C2F8827816F906AFDCE39
:1015F0009E012370332781E090E002C0880F991F7D
:101600002A95E2F7C695C69530E2C39FE001112402
:101610008C2B9D2B9A68E9CE9C2F8827846F906A2B
:10162000E4CE9C2F8827806F906ADFCE8C2F8F703E
:101630000E944D0934E0D695C7953A95E1F7CF70F1
:101640009C2F9069D2CE89E390E0CFCE82EE90E0DD
:10165000CCCE86EE90E0C9CEBF92CF92DF92EF92D1
:10166000FF920F931F93CF93DF938C01C0908E0254
:10167000D0908F02E0909002F0909102809143020E
:1016800090914402A0914502B0914602C82AD92AFD
:10169000EA2AFB2ACFE1D0E0BC2ED701C6010C2EEE
:1016A00004C0B695A795979587950A94D2F780FDC3
:1016B0000EC0219788F7B12C8B2DDF91CF911F9110
:1016C0000F91FF90EF90DF90CF90BF900895B801F9
:1016D0008C2F0E949009019761F3EECFCF93DF9397
:1016E000EC010E942C0BBE01DF91CF910C9490096C
:1016F0000E946E0B292F2F7092959F7092509E30F2
:1017000078F4E92FF0E0E658F54D0C942926803F57
:1017100019F020F4883E20F481E00895843FE1F33D
:1017200080E00895883EC0F3813FD1F7F5CF822F46
:1017300086958695869508959C019A9581159F4179
:1017400038F482E031FF80E033FD8860FB010994CA
:101750000895FC018081813041F49185911114C07C
:101760009285992389F082E00895823041F4818541
:10177000811107C08285811106C083E0089586E04B
:10178000089585E0089584E0089527982F98089596
:1017900026982E98089525982D98089556985E9825
:1017A0000895279A2F9A0895269A2E9A0895259A91
:1017B0002D9A0895CF92DF92EF92FF92CF936B0113
:1017C0007C010E948607C82F0E94CE0B0E94CB0B83
:1017D0000E94C80B0E94C50BC150C73040F4EC2FCB
:1017E000F0E0E857F54D0C9429260E94D70BC7016D
:1017F000B601CF91FF90EF90DF90CF9008950E94B7
:10180000D70B0E94D40BF3CF0E94D70B0E94D10BB1
:10181000EECF0E94D70B0E94D40BF8CF20982898C7
:101820002198299822982A9823982B9852985A9868
:1018300053985B983E98469808958098889A819826
:10184000899A84988C9A85988D9A86988E9A87988A
:101850008F9A0895CF9384E090E00E946626C82F67
:1018600081E290E00E946626982F8C2FCF910895F8
:10187000CF93DF9300D00F92CDB7DEB79091BA022D
:10188000943019F589837B836A8383E08093E90030
:101890008FEF9091E800815095FD06C095ED9A95E7
:1018A000F1F700008111F5CF8091E80085FF0DC0B0
:1018B00050E040E063E070E0CE0101960E94340405
:1018C0008091E8008E778093E8000F900F900F9042
:1018D000DF91CF910895BC0184E00C94380CBC01D9
:1018E00083E00C94380C9C0182E08093E9009FEF28
:1018F0008091E800915085FD06C085ED8A95F1F74D
:1019000000009111F5CF8091E80085FF0CC050E0F8
:1019100040E065E070E0C9010E9434048091E80075
:101920008E778093E8000895CF93DF93EC01809148
:1019300043018823B1F18091600287FF32C060E2E9
:1019400083E08093E9008FEF9091E800815095FD4E
:1019500006C095ED9A95F1F700008111F5CF8091C1
:10196000E80085FF1BC08091430170E050E040E03B
:10197000811104C050E040E068E070E0CE010E94B8
:1019800034048091E8008E778093E80080E2FE01C5
:10199000A8E9B2E001900D928A95E1F7DF91CF912D
:1019A000089568E081E0CDCFEF92FF920F931F93EF
:1019B000CF93DF930E94CE0B0E94CB0B0E94C80BEB
:1019C0000E94C50B88E8E82EF12C8FEF90E0F7011C
:1019D000918380830AE810E0F80191838083CCE84A
:1019E000D0E0998388830E94D70BFFEF20E782E045
:1019F000F15020408040E1F700C000000E94D40B6D
:101A00009FEFE0E7F2E09150E040F040E1F700C0E6
:101A100000000E94D10B2FEF80E792E02150804020
:101A20009040E1F700C000000E94CB0BEFEFF0E721
:101A300022E0E150F0402040E1F700C000000E94A9
:101A4000C80B8FEF90E7E2E081509040E040E1F773
:101A500000C000000E94C50B80914E028770FFEF0E
:101A60008F9FC00111249595879595958795992706
:101A7000F70191838083F801918380839983888320
:101A80000E94CE0B0E94CB0B0E94C80BDF91CF911E
:101A90001F910F91FF90EF900C94C50B6FEE7EEFAE
:101AA00090E080E00E94982660E082E090E00E9452
:101AB0007A2660E083E090E00E947A26109243024A
:101AC00010924402109245021092460260E084E0B7
:101AD00090E00E947A2660E081E290E00E947A26FF
:101AE00060E085E090E00E947A2660E086E090E089
:101AF0000E947A266FEF87E090E00E947A2640E00D
:101B000050E0BA0188E090E00E948C2660E08DE011
:101B100090E00E947A2640E050E0BA0188E190E02F
:101B20000E948C2660E087E190E00E947A2640E0E7
:101B300050E0BA018CE190E00E948C2660E080E2E7
:101B400090E00E947A2640E050E0BA0188E190E0FF
:101B50000E948C2610924E0210924F021092500258
:101B60001092510284E0806180934E0240914E02B7
:101B700050914F0260915002709151028FE090E0BD
:101B80000E948C2640E050E0BA0183E190E00C9482
:101B90008C26CF93C82F873070F5809137019091B4
:101BA0003801892B89F564E670E080E40E944E25B7
:101BB0009093380180933701892BD1F464E670E06B
:101BC00082E10E94AA259093380180933701892BE6
:101BD00079F481E090E001C0880FCA95EAF764E6E5
:101BE00070E080950E94AA25909338018093370178
:101BF000CF910C94FD258A30B9F040F4883071F013
:101C0000893079F0209A2898CF9108958C3091F0FE
:101C100070F08D30B9F73E9A4698F6CF219A299800
:101C2000F3CF229A2A98F0CF239A2B98EDCF529A8D
:101C30005A98EACF539A5B98E7CF80E290E090936E
:101C40003801809337018091B60181110EC00E9446
:101C5000482581E08093B6012FEF83ED90E321507A
:101C600080409040E1F700C0000064E670E080E44E
:101C70000E944E259093380180933701892B09F0FB
:101C80004EC064E670E080E00E94AA25909338017F
:101C900080933701892B09F042C064E670E080E050
:101CA0000E94AA259093380180933701892BB9F5BA
:101CB00064E670E08FE30E94AA2590933801809338
:101CC0003701892B61F50E94FD2564E670E080E410
:101CD0000E944E259093380180933701892BF9F4A7
:101CE00064E670E08CE00E94AA259093380180930E
:101CF0003701892BA1F464E670E080E00E94AA25F8
:101D00009093380180933701892B49F464E670E0A1
:101D10008FE30E94AA2590933801809337010E9497
:101D2000FD25809137010895CF93873050F580913C
:101D3000370190913801C0E0892B71F464E670E0BE
:101D400081E40E944E259093380180933701892BBE
:101D500031F0C0E00E94FD258C2FCF91089584E6DC
:101D600090E00E94D92597FF05C090933801809399
:101D70003701EFCFC82FC09510923801109237016C
:101D8000E9CFCFB18FB1869586958C73C3708C2BBC
:101D9000C82FC095E1CF1F920F920FB60F9211245A
:101DA0002F933F934F935F936F937F938F939F9363
:101DB000AF93BF93EF93FF938091E10082FF09C03F
:101DC0008091E20082FF05C08091E1008B7F8093CB
:101DD000E1008091DA0080FF24C08091D80080FF6C
:101DE00020C08091DA008E7F8093DA008091D90044
:101DF00080FF9BC080E189BD82E189BD09B400FEFE
:101E0000FDCF81E08093BA0280919502811109C0D3
:101E10000E94E4030E94B1048091E20084608093F8
:101E2000E2008091E10080FF17C08091E20080FF16
:101E300013C08091E2008E7F8093E2008091E200E7
:101E400080618093E2008091D80080628093D80006
:101E500019BC85E08093BA028091E10084FF29C01B
:101E60008091E20084FF25C080E189BD82E189BDC7
:101E700089B5982F917080FFFBCF8091D8008F7D1E
:101E80008093D8008091E1008F7E8093E100809163
:101E9000E2008F7E8093E2008091E2008160809377
:101EA000E2008091BB02882309F445C084E080935E
:101EB000BA028091E10083FF27C08091E20083FF96
:101EC00023C08091E100877F8093E10082E08093CE
:101ED000BA021092BB028091E1008E7F8093E100F4
:101EE0008091E2008E7F8093E2008091E200806129
:101EF0008093E20042E060E080E00E947F048091F5
:101F0000F00088608093F000FF91EF91BF91AF9156
:101F10009F918F917F916F915F914F913F912F9101
:101F20000F900FBE0F901F90189519BC1092BA0217
:101F30001092950276CF8091E30087FD93E0909315
:101F4000BA02B7CF78941F921FB61F9211248F93B5
:101F50009F93AF93BF938091470290914802A091C5
:101F60004902B0914A020196A11DB11D809347021A
:101F700090934802A0934902B0934A02BF91AF9157
:101F80009F918F911F901FBE1F9018952FB7F894A7
:101F90008091470290914802A0914902B0914A0273
:101FA0002FBF08950E94C60F9C0190917A028091E4
:101FB0007B02982B21F03093780220937702909146
:101FC0007C0280917D02982B21F030937502209342
:101FD0007402E0916202F0916302309731F0048064
:101FE000F581E02D89E792E009940895109241026D
:101FF00010923F020E94E70785E0E9E7F2E0DF0187
:102000001D928A95E9F7109276021092730210924F
:102010004B020E94D20F90E080E00E94C50890E041
:1020200080E00C94AF08CF92DF92EF92FF92CF93B3
:10203000DF9300D000D0CDB7DEB70E94DA0B6B0182
:102040007C0180919202882321F08091930281117A
:1020500015C0C0928E02D0928F02E0929002F09250
:1020600091020E94F60F0F900F900F900F90DF914A
:10207000CF91FF90EF90DF90CF900895198282E08A
:102080008A83C701B6010E9486078B838EEF8C83FB
:1020900064E0CE0101960E94D205DBCF0F931F931F
:1020A00041E050E060E070E004C0440F551F661F3F
:1020B000771F8A95D2F7CB01BA016095709580950C
:1020C000909500918E0210918F0220919002309194
:1020D000910260237123822393231F910F910C940B
:1020E000131090913E028095892380933E02282F01
:1020F000277071F4282F082E000C330B921713064B
:1021000039F08595859585950E944E1010923E0276
:1021100008950F931F9341E050E060E070E004C029
:10212000440F551F661F771F8A95D2F780918E0244
:1021300090918F02A0919002B09191028A019B012F
:10214000082B192B2A2B3B2BC901B8011F910F918A
:102150000C941310609343027093440280934502E1
:10216000909346020C94F60F109240028091430126
:10217000E8E9F1E0882359F08091600287FF07C009
:102180008EE1DF011D928A95E9F70C94F60F86E047
:10219000F8CF1F93CF93DF93CDB7DEB7AA970FB6D3
:1021A000F894DEBF0FBECDBF8CEB92E02091F10022
:1021B000FC012193CF01F2E0843C9F07B9F78091A5
:1021C000BD02893009F444C018F5823009F4B9C061
:1021D000833009F46EC0813031F58091BC02813AC0
:1021E00011F58091E800877F8093E8008091C0021C
:1021F0009091C102892B41F560E288E992E070E09C
:102200000E9471058091E8008B778093E8000BC0F5
:102210008B3009F46BC008F483C0823409F4A2C087
:10222000853409F4BCC08091E80083FF50C28091DE
:10223000BC029091BD029A3008F049C2E92FF0E04B
:10224000E157F54D0C94292660E090E080E0D7CF6F
:102250008091BC02813239F78091C0029091C10215
:10226000009711F00297F9F68091E800877F80933C
:10227000E8008091E80082FF17C09091F300809100
:10228000F200029729F48091F1008B7F813021F4D4
:102290008091F100809397028091E8008B77809382
:1022A000E8000E946004BFCF8091BA028111E1CFA3
:1022B000BACF8091BC02813A09F0B5CF8091C002BB
:1022C0009091C102892B09F0AECF8091E800877F01
:1022D0008093E8008091E80080FFFCCF809143016B
:1022E0008093F1008091E8008E77D9CF8091BC0275
:1022F000813209F098CF8091C0029091C102892B60
:1023000009F091CF8091E800877F8093E8000E94D8
:1023100060048091BE02809343010E94B41083CF79
:102320008091BC02813209F07ECF8091E800877FE6
:102330008093E8000E9460048091BF02809396021F
:1023400072CF8091BC02813A09F06DCF8091E80094
:10235000877F8093E8008091E80080FFFCCF809128
:102360009602BECF8091BC02803C09F05CCF809188
:10237000C0029091C102029739F58091BE029091FE
:10238000BF02892B09F58091E800877F8093E800E0
:102390006BE170E08AE696E00E94120582CF8091A0
:1023A000BC02803C09F03FCF8091C0029091C102F5
:1023B000079751F48091E800877F8093E80062EBF3
:1023C00070E088EB95E0E8CF8091EB00806280932D
:1023D000EB0029CF803899F0823809F078C18091DC
:1023E000C0028F70873008F072C18093E90080913D
:1023F000EB0085FB882780F91092E90006C08091E8
:10240000B8029091B902911182609091E800977F93
:102410009093E8008093F1001092F1008091E80021
:102420008E7751C1882309F43FC1823009F04FC132
:102430008091BE02811142C18091C0028F702FEF46
:10244000280F263008F043C18093E9002091EB006B
:1024500020FF34C1933031F48091EB00806280938F
:10246000EB002CC19091EB0090619093EB0021E088
:1024700030E001C0220F8A95EAF72093EA0010921B
:10248000EA008091EB008860EACF811120C11091B1
:10249000BE021F778091E3008078812B8093E30058
:1024A0008091E800877F8093E8000E94600480911B
:1024B000E80080FFFCCF8091E30080688093E30018
:1024C00082E0111183E08093BA0201C1805882300A
:1024D00008F0FDC08091BE029091BF028C3D23E0C8
:1024E0009207A1F583E08A838AE289834FB7F89443
:1024F000DE01139620E03EE051E2E32FF0E050933E
:102500005700E49120FF03C0E295EF703F5FEF704A
:102510008E2F90E0EA30C0F0C7968D939D932F5F89
:10252000243159F74FBF8091E800877F8093E800FE
:102530006AE270E0CE0101960E9471058091E80088
:102540008B778093E800C3C0C096E7CF2091C0028C
:102550003091C102492F55274330510551F1A0F464
:102560004130510509F459C06BE670E086E896E009
:102570004230510509F0ABC02091E800277F20933D
:10258000E8000E941205DACF4132510539F142329A
:10259000510591F14F30510509F099C0E3E5F7E09D
:1025A000649170E081E597E06115710509F48FC0D1
:1025B000E3CF99278130910571F0009731F00297B0
:1025C00009F085C0E3E0F7E002C0EDE4F7E06491D4
:1025D00070E0CF01E9CFEBE1F7E0F9CF233031052F
:1025E00008F075C0220F331FF901E157FE4F8081BB
:1025F000918169E070E0C0CF2330310508F067C0F9
:10260000F901EE0FFF1FE757FE4F808191812A5796
:102610003E4FF901608170E0C7CF62E170E081EF69
:1026200096E0AACF803809F052C08091E800877FF9
:102630008093E8008091BB028093F100EFCE81117E
:1026400046C01091BE02123008F041C08091E800EF
:10265000877F8093E8001093BB020E9460041123DF
:1026600011F084E005C08091E30087FDFACF81E09E
:102670008093BA0242E061EC81E00E947F0442E074
:1026800061EC82E00E947F0442E261EC83E00E9400
:102690007F0442E361EC84E00E947F0442E360EC4B
:1026A00085E00E947F0413C08091BE02813079F4DE
:1026B00081E0933009F080E08093B9021092E90044
:1026C0008091E800877F8093E8000E9460048091F9
:1026D000E80083FF0AC08091E800877F8093E800CC
:1026E0008091EB0080628093EB00AA960FB6F8947D
:1026F000DEBF0FBECDBFDF91CF911F9108951F9216
:102700000F920FB60F9211242F933F934F935F9325
:102710006F937F938F939F93AF93BF93CF93DF93E9
:10272000EF93FF93D091E900DF708091EC00C82F08
:10273000C17080FDC0E81092E9008091F000877FB1
:102740008093F00078940E94C9101092E900809163
:10275000F00088608093F000CD2BCF70C093E9002B
:10276000FF91EF91DF91CF91BF91AF919F918F91A9
:102770007F916F915F914F913F912F910F900FBE7D
:102780000F901F901895882379F19CEF980F913A3C
:1027900038F4682F86E991E00E9427070C94E70738
:1027A00090E2980F983050F4877091E001C0990F33
:1027B0008A95EAF7892F0E94E007F0CF9BE5980FF2
:1027C000933020F490E080E00C94C50898E5980FD1
:1027D000973120F490E080E00C94AF08803F20F027
:1027E0000E94E9050C94D20F0895CF93DF93EC017A
:1027F0000E94C3136DE878E0CE01DF91CF910C9475
:102800009C0B8FE39CE90197F1F700C000008091D9
:10281000BA01823079F028F4813039F01092BA018F
:102820000895833011F08530C9F780E390E00E946D
:10283000F513F4CF80E39AE0FACF8FE39CE9019798
:10284000F1F700C000008091B801823079F028F4DF
:10285000813039F01092B8010895833011F085303D
:10286000C9F78FE290E00E94F513F4CF8FE29AE06F
:10287000FACFCF93C82F882309F46EC08CEF8C0F4A
:10288000813AB8F580914301882311F1809160026B
:1028900087FF1EC0EC2FE695E695E695F0E0EA5638
:1028A000FE4F828190E04C2F477021E030E002C063
:1028B000220F331F4A95E2F782239323892B89F055
:1028C0006C2F86E991E00E9427070E94E70709C064
:1028D000E8E9F1E08191C81799F381E0EE39F80752
:1028E000C9F76C2F86E991E00E945107CF910C94B3
:1028F000E70780E28C0F883068F4C77021E030E091
:1029000001C0220FCA95EAF780914002822B809382
:102910004002ECCFEBE5EC0FE33040F4F0E0EB5A93
:10292000FE4F808190E0CF910C94C508E8E5EC0F54
:10293000E73150F4F0E0EE0FFF1FE85AFE4F8081C0
:102940009181CF910C94AF08C03F30F08C2F0E9442
:10295000B006CF910C94D20FCF910895CF93C82F8A
:102960000E943914C93349F42FEF87EE93E02150C8
:1029700080409040E1F700C000008C2FCF910C9474
:10298000C3130F931F93CF93DF93C62FD42F022F20
:10299000FC0182818823A1F06093C6020E94C60FC9
:1029A0009093C5028093C402C77081E001C0880F74
:1029B000CA95EAF7DF91CF911F910F910C94A5086A
:1029C0008091C602681335C08091C4029091C502FF
:1029D0000E941807883C910560F510E21D0FCD1785
:1029E000B9F080E28C0F883040F4C77081E001C0FC
:1029F000880FCA95EAF70E949E08183048F481E0D3
:102A00009D2F977001C0880F9A95EAF70E94A5083C
:102A1000802F0E94AE14183098F4D77081E001C066
:102A2000880FDA95EAF7DF91CF911F910F910C94FF
:102A30009E08C77081E001C0880FCA95EAF7F3CFFE
:102A4000DF91CF911F910F9108950F931F93CF9313
:102A5000DF938C01EB018091360182FF2DC08B7FCB
:102A6000809336018091CC012091CA013091CB0135
:102A7000AB01421B530B20913401309135014217B9
:102A8000530778F40E943914809136018D7F80932A
:102A900036018091CC010E94C31382E00E94D907C5
:102AA00015C0909141029260909341020E943914A6
:102AB000809136018260EBCF802F0E94C3138091FA
:102AC000CC019091CD010817190739F30E94E7074F
:102AD000D093CB01C093CA01DF91CF911F910F9189
:102AE0000895FF920F931F93CF93DF93E82FF0E0A9
:102AF000EA53FE4FF490C82FC695C695C695D0E010
:102B0000FE01EA54FE4F0491877010E0082E02C0C7
:102B1000159507950A94E2F701701127CA55DE4F03
:102B2000FE01C491D0E002C0D595C7958A95E2F721
:102B3000C170DD270115110519F081EE0E943914CD
:102B4000209719F086EE0E9439148F2D0E94AE1442
:102B5000CD2B19F086EE0E94C313012B41F081EEBC
:102B6000DF91CF911F910F91FF900C94C313DF91D0
:102B7000CF911F910F91FF900895FF920F931F9394
:102B8000CF93DF938C018AE0F82EF801849188239B
:102B900009F44BC0813009F044C0E8012196FE01E0
:102BA0008491813049F42196FE0184910E94AE14F3
:102BB0008E010F5F1F4FE9CF823039F4E801229672
:102BC000FE0184910E943914F3CF833039F4E80177
:102BD0002296FE0184910E94C313EACF843041F70C
:102BE000E8012296FE01249190E080E0FE013196FA
:102BF0002053330B2A30310548F00197C8F2EFE932
:102C0000FFE03197F1F700C00000F7CFF89EA00178
:102C1000F99E500D1124C901840F951F2491EF01D5
:102C2000E5CF0E947115E801C3CFDF91CF911F91CD
:102C30000F91FF900895CF93C82F64E978E00E9428
:102C40009C0B8C2FCF910C943914CF93DF93EC0114
:102C50000E941B16CE01DF91CF910C94F513CF93F8
:102C6000DF93EC018881833061F480E390E00E947F
:102C7000251680E390E00E94251680E390E00E94F4
:102C800025168881843030F080E390E0DF91CF9189
:102C90000C942516DF91CF910895CF93DF93EC012B
:102CA0008881833061F48FE290E00E9425168FE2E4
:102CB00090E00E9425168FE290E00E942516888100
:102CC000843030F08FE290E0DF91CF910C942516A4
:102CD000DF91CF9108950E94A90B8093BA018230B1
:102CE00049F018F4813071F00895833039F085305F
:102CF00061F0089580E39AE00C941B1680E390E065
:102D00000E941B1680E390E0F7CF80E390E00E94E2
:102D10002516F8CF0E94A90B8093B801823049F0A4
:102D200018F4813071F00895833039F0853061F006
:102D300008958FE29AE00C941B168FE290E00E94B7
:102D40001B168FE290E0F7CF8FE290E00E942516ED
:102D5000F8CF4F925F926F927F928F929F92AF9235
:102D6000BF92CF92DF92EF92FF920F931F93CF9378
:102D7000DF93CDB7DEB728970FB6F894DEBF0FBE4E
:102D8000CDBF7C01DC0113968D919C911497892B0A
:102D900041F01C911196DC90812F8D218F3F09F01D
:102DA0006CC628960FB6F894DEBF0FBECDBFDF917C
:102DB000CF911F910F91FF90EF90DF90CF90BF9038
:102DC000AF909F908F907F906F905F904F900895FD
:102DD0000E942C0B082F682F89819A810E94550828
:102DE000E12FF0E0B6E0DB9EE00DF11D112424E5BB
:102DF000029FE00DF11D1124EE0FFF1FE059FD4F62
:102E000005911491D70112968C918111EFC0809198
:102E1000920281112CC10A32BDE51B0709F043C1A2
:102E2000F70182818823C9F180914E0291E0980FC9
:102E30009770887F953008F4892B80934E0280919B
:102E40004E028770FFEF8F9FC001112495958795E3
:102E50009595879599279093890080938800909302
:102E60008B0080938A0090938D0080938C0040911A
:102E70004E0250914F0260915002709151028FE0CA
:102E800090E00E948C2660918E0270918F0280915A
:102E90009002909191020E94DA0BC80197558F3FE2
:102EA000910511F008F048C02091320130913301B2
:102EB0002817390724F49093330180933201F701E6
:102EC000228136E1389F4001399F900C1124C401C2
:102ED0008A5F9E4F6C01DC0150962C935097928133
:102EE00016968C911697992309F406C11A961C938D
:102EF0000E9319978F5F16968C930E94C60FF6015A
:102F000096878587809142028783809141029091C4
:102F10004002892B80870190F081E02D309741F0AD
:102F2000D60154966D917C91C401845F9E4F0995A2
:102F30001093C9010093C8010E94C60F6C01D7010C
:102F400012968C91882311F18091360182FF05C081
:102F5000B60190E080E00E94251582E00E94D9072A
:102F60000931BCE51B0709F44CC108F0D3C0073197
:102F7000FCE51F0709F43BC18091340190913501B4
:102F8000059708312CE5120709F436C1C8014E97A0
:102F90000A9708F0A6C1D70112968C91882309F4EC
:102FA0009BC18091360180FFD4C090914002911165
:102FB000D0C01093CD010093CC01D092CB01C09230
:102FC000CA0184608093360182E00E947110809172
:102FD0003E02877009F4E5CED70112968C918823C2
:102FE00009F4DFCE82E00E947110DBCE80913201C5
:102FF00090913301019609F40ACF76E0C72E71E073
:10300000D72E912C812C772473948091320190914A
:103010003301881599050CF4FACEF60186818823D0
:10302000F9F0818592858017910739F48091C80164
:103030009091C9018017910799F0D6011F967C9253
:103040001F971C961C930E931B9751968C91811180
:1030500003C0C6010E94E708C60106960E9408093F
:10306000BFEF8B1A9B0AE6E1CE0ED11CCECF80912A
:103070009302882309F4CFCE1982D70112968C913E
:1030800081110FC082E18A83D7018C918B831196C5
:103090008C918C838EEF8D8365E0C5010E94D205F3
:1030A000BACE81E1F0CF0E322DE51207A1F00F323A
:1030B0003DE51307C1F00D328DE5180709F0EDCE9F
:1030C000D70112968C91882309F4E7CE80E692E02E
:1030D0000E94BD15E2CEF7018281882309F4DDCE7E
:1030E00086E592E0F5CFD70112968C91882309F4FA
:1030F000D4CE86E492E0ECCF882309F41DCFF6010C
:103100008189882309F418CFC401845F9E4F0E94EF
:10311000080912CF0B313CE51307B1F070F0809134
:1031200036018E7F0C319CE5190709F02FCF809373
:10313000360182E00E94D9070CC090913601892F98
:103140008E7F90FF8160F3CF809136018160809304
:103150003601F7018281882309F4A5C41092C602C2
:103160000230FCE51F0708F4C9C106312CE512073F
:1031700038F098012B5F3C452730310508F0BEC17F
:103180000E942A0C90936102809360020F303CE50C
:10319000130709F494C108F011C108309CE5190720
:1031A00009F477C108F0E4C00430BCE51B0709F45A
:1031B00060C108F0D0C00230FCE51F0709F455C11A
:1031C00080916002826003301C4509F4E3C0609185
:1031D00060021091610284E090E00E947A26612FE3
:1031E00081E290E00E947A260E94B410F0CE809195
:1031F0003401909135010596909335018093340107
:10320000A8CF809135018F93809134018F9384E40E
:1032100091E09F938F931F9288E08F93BF92AF921C
:103220000E94D9270FB6F894DEBF0FBECDBF65014F
:103230005AE0952EF6018081882309F48ACF8130E7
:1032400009F047C091818281913049F4F2E0CF0EBC
:10325000D11C0E94AE142FEFC21AD20AEBCF9230CB
:1032600031F422E0C20ED11C0E943914F4CF933005
:1032700031F432E0C30ED11C0E94C313ECCF943062
:1032800021F08FEFC81AD80AE6CF92E0C90ED11C00
:1032900030E020E0A6014F5F5F4F8053990B8A30EA
:1032A000910550F021503109B0F2EFE9FFE031977C
:1032B000F1F700C00000F6CF929EB001939E700D12
:1032C00011249C01260F371FD60111968C916A019B
:1032D000E1CF0E947115BFCFB601C8010E9425152C
:1032E00076CE043FBCE51B0739F188F4093DFCE5C7
:1032F0001F07F1F00A3D2CE5120751F1083D3CE5AE
:10330000130709F026CF26E241EE61EE0DC0063F1D
:103310008CE51807C9F0A0F027E245EE66EE073FFE
:10332000ACE51A0709F015CFC7010E94C1144FCEB2
:1033300027E245EE65EEF8CF26E241EE60EEF4CFEF
:1033400027E245EE64EEF0CF26E241EE62EEECCFEE
:1033500028E241E0EFCF80916002806106303CE5D9
:103360001307C1F008F489C080916002806212C026
:103370000B309CE5190709F49AC078F40930BCE5D4
:103380001B0709F48AC0809160028C600A301C45DA
:1033900009F01DCF809360021ACF809160028B7F6D
:1033A0000D30FCE51F07B1F3809160028D7F0E3078
:1033B0001C4580F380916002877FECCF0B3F3CE59A
:1033C000130709F45EC048F502319CE5190709F4BA
:1033D0007EC060F40031BCE51B0709F474C0809125
:1033E00060028F7B01311C45A9F2F1CE0431FCE56E
:1033F0001F0709F47AC008F470C005311C4509F0B4
:10340000E6CE8091600282FB992790F921E0922715
:1034100090FB82F990FB83F9BDCF0E3F8CE5180736
:1034200009F449C070F40C3FACE51A0771F18091C2
:1034300061028E7F0D3F1C4509F0C9CE8093610269
:10344000C6CE0115EDE51E0709F44BC060F1013051
:103450001D4509F0BCCE80916102982F9095917026
:103460008E7F892B90FB81F9E9CF8091600281608A
:1034700091CF8091600284608DCF809160028860DE
:1034800089CF809161028160D9CF80916102826091
:10349000D5CF8091600280647DCF0E94B41080916E
:1034A0006002806877CF809161028360C7CF80918E
:1034B00060028E7F6FCF809161028D7FBFCF809140
:1034C00060028F7E67CF809160028F7D63CF0E9404
:1034D000B410809160028F775DCF80916002837F0E
:1034E00059CF809161028C7FA9CF0E94B410909136
:1034F0006002892F97FB87F980584CCF06313CE555
:10350000130709F0DEC2809140028A7A91E009F443
:1035100090E09093CE0169E2811165E386E991E044
:103520000E9451070E94E70752CD0E944E0D4FCDD9
:103530008091940291E089278093940248CDF7010D
:1035400000811181882309F440C0C8010E942C0B1E
:10355000D82E682FC8010E945508B8018D2D0E94F1
:1035600090098C01682ED70115968C90159782943E
:103570004FE084221296DC90D1101092410280918B
:103580003E02877099F0DD2089F0812F807F8034A2
:1035900021F080E2800F883048F082E00E947110B4
:1035A00080913E028770CC24C3948111C12C912E4E
:1035B00092943FE09322BBE0B91508F43DC0E92D99
:1035C000F0E0E756F54D0C942926C8010E942C081E
:1035D000D82EC3CFE12FEF708E2E107F19F082947A
:1035E00020EF8222DD20C9F0882069F080E2800F80
:1035F000883010F061100BC080914002882A8092C0
:1036000040020E94E707802F0E94391415C0809164
:103610004102882A80924102F4CF802F0E94C31376
:10362000882051F0005E882D083010F0611041C0F4
:103630000E94E0070E94E707A92DA850BB0B149732
:1036400010F40E94DB08CC20A9F080913E0280FD9E
:1036500011C0F70112828595859585950E94891084
:10366000C7010E94A91680913E0285958595859592
:103670000E944E1085E0F701D50101900D928A95C8
:10368000E1F789819A810E942C089A81E981F0E012
:1036900026E0929FE00DF11D112434E5839FE00D9B
:1036A000F11D1124EE0FFF1FE059FD4F85919491FC
:1036B00078CB0E94D907BECFF12FFF707F2E107FED
:1036C000103219F0729490EF7922662041F021E0D7
:1036D000621631F1DD2079F1882041F194CFDD20AF
:1036E00091F090914202872D892B811003C00E9496
:1036F000A508A2CF31E08312FACF891709F49CCF35
:103700008093420299CF811006C00E94D307872D73
:103710000E949E0891CF81E0881609F48DCFF5CFE5
:10372000DD2031F091E0981508F486CF872DDFCFAA
:10373000811082CFECCF882051F3A9E36A1209C02F
:10374000BFEFE7EEF3E0B150E040F040E1F700C03A
:103750000000802F0E94C3136FCF812F869586951E
:10376000837061F0813009F067CFC8019370D11088
:1037700002C090E080E00E94AF085ECFC801937065
:10378000D11002C090E080E00E94C50855CF802F84
:10379000DD2029F00E94B0060E94D20F4DCF0E947A
:1037A000E905FACF812F837009F066C0D11044CFAC
:1037B000802F829586958770880F880F602F6F7095
:1037C000462E512C712C612C082E04C0440C551C23
:1037D000661C771C0A94D2F740E050E0BA0104FF5F
:1037E0000FC04FE050E060E070E004C0440F551F90
:1037F000661F771F8A95D2F7409550956095709512
:10380000812F869586958370823019F1D8F40091C6
:1038100043021091440220914502309146028130CA
:1038200069F04429552966297729CB01BA0160231B
:103830007123822393230E94AA10FECE402A512A8C
:10384000622A732ACB01BA0164297529862997292E
:10385000F2CF442955296629772900914302109116
:1038600044022091450230914602CB01BA01602703
:10387000712782279327DFCF8695DD2011F0812FD6
:103880008170882309F4D8CE802F82958695877021
:10389000880F880F602F6F70462E512C712C612C71
:1038A000082E04C0440C551C661C771C0A94D2F7E1
:1038B00040E050E0BA0104FF0FC04FE050E060E08C
:1038C00070E004C0440F551F661F771F8A95D2F71A
:1038D0004095509560957095812F8695869583705B
:1038E000823019F1D8F400918E0210918F0220914C
:1038F000900230919102813069F04429552966295E
:103900007729CB01BA0160237123822393230E947C
:10391000131092CE402A512A622A732ACB01BA018F
:103920006429752986299729F2CF442955296629C2
:10393000772900918E0210918F0220919002309190
:103940009102CB01BA016027712782279327DFCF2D
:103950001F70DD2029F0812F0E948910802FC7CE93
:10396000802F0E949E08812F0E944E1065CE802FCE
:1039700022EF621609F44EC0261578F030EF631678
:1039800019F191EF691609F43DC0DD2009F465C015
:10399000811039CE812F8F713AC0A3EF6A1609F4D6
:1039A0003EC0B4EF6B12F1CFDD2009F44BC01F71A4
:1039B000812F0E948910F8E01F9FC00111248360AD
:1039C00080933E02812F23C0DD20B9F0811034CED8
:1039D0001F7161E070E080E090E004C0660F771F27
:1039E000881F991F1A95D2F700918E0210918F02AD
:1039F0002091900230919102A6CFE1E0E81508F401
:103A00001BCEE6CF812F8F71DD2009F4ADCF0E9450
:103A1000891012CE812F8F71DD20C9F3A5CF60E010
:103A200070E0CB01DD2009F472CF1F7161E070E01E
:103A300080E090E004C0660F771F881F991F1A95D9
:103A4000D2F765CF81E00E94711021E0281508F0BF
:103A5000F3CD82E00E947110EFCD882059F08933B8
:103A600009F077CE3FEF87EE93E0315080409040F1
:103A7000E1F76DCE812F8F7177CF85E0F7019E0141
:103A80002F5F3F4F5901D90101900D928A95E1F7BF
:103A9000D70112962C9189819A81211199C90E948E
:103AA0002C08082F9DC906311C4509F048CD80918E
:103AB000CE0169E2811165E386E991E00E94270762
:103AC00031CD0F3DECE51E0709F42FCD0930FDE5A2
:103AD0001F0709F42DCD01151C4509F030CD0E94BA
:103AE000B4108FEF94E3ACE081509040A040E1F738
:103AF00000C00000F89481E08093E00080E28093B1
:103B0000D8001092C900EFE1FEE43197F1F700C050
:103B100000001DBA109268001CBC10BE1FBA1092A3
:103B20007A0010926E0010926F0010927100109245
:103B300072001092C9001092BC0014B817B81AB8DD
:103B40001DB810BA1092BC0015B818B81BB81EB832
:103B500011BA0C94003F3BCA1F93CF93DF9380911F
:103B6000D401807FA9F48091D101882389F08091CC
:103B70000602D091D5016091CF017091D001A09142
:103B8000D201B091D301C62FC72316E0D81304C0C9
:103B9000DF91CF911F91089590E0109711F0CF3FE2
:103BA00019F401968770F2CF189F9001199F300D7C
:103BB0001124F901EA52FE4F41814713F2CF4081AF
:103BC0004613EFCF42814111ECCF438154814A1B10
:103BD0005B0B483C510528F78091D4018F708061C0
:103BE0008093D401F901E552FE4F80818F7080618E
:103BF00080838FEC91E00E94A916DF91CF911F91F5
:103C00000C948308AF92BF92CF92DF92EF92FF9213
:103C10000F931F93CF93DF93CDB7DEB761970FB6A6
:103C2000F894DEBF0FBECDBF8C0185E0F801DE0148
:103C30001D9601900D928A95E1F7F801808191819E
:103C4000E2802FECA22E21E0B22E6091D201709181
:103C5000D3016115710509F43EC13091CF01409146
:103C6000D001232F24232F3F09F435C1C380D480F2
:103C7000F090D101F601E61BF70BFF2009F4FBC021
:103C80002091D401522F507FE83CF10508F0BBC0D1
:103C9000511178C0FE2C491321C038131FC0E11008
:103CA0001DC02F7020612093D401C5010E94A91668
:103CB0008091D401F80185838F2D61960FB6F89419
:103CC000DEBF0FBECDBFDF91CF911F910F91FF904F
:103CD000EF90DF90CF90BF90AF900895CD2829F05E
:103CE000282F29232F3F09F014C120E0F22FF17073
:103CF000DF2E20FF3DC0209106024091D50156E005
:103D0000241315C08D879E878D859E850E946E0B1E
:103D1000292F22952F702230F8F0243020F59F7043
:103D2000F9F0F8019581907FD9F4D12C1FC030E0D3
:103D3000529FF001539FF00D1124EA52FE4F618112
:103D4000961306C06081861303C06281E61210C01C
:103D50002F5F3F4F2770D4CF9F7011F0882329F336
:103D6000805E883010F3C8010E94A916FD2CA4CFF4
:103D7000EE2009F4A1CF8091D40181608093D40119
:103D8000F12C9ACF491312C0381310C0E1100EC0A5
:103D9000F8012583C8010E94A91686E0F801AFEC5E
:103DA000B1E001900D928A95E1F786CF8D879E87CD
:103DB0008D859E850E94780B882309F1EE20F9F00D
:103DC0008091D401803270F02091CF013091D001E8
:103DD00038872F831986DB86CA868C87CE010796A3
:103DE0000E94A91686E0F801AFECB1E001900D92B7
:103DF0008A95E1F70E94AC1DFF24F3945DCFC801C2
:103E00000E94A916F9CF51110AC08FEC91E00E94CF
:103E1000A91686E0F50111928A95E9F7B1CF491309
:103E20000FC038130DC0E1100BC0F8012583C80185
:103E30000E94A91686E0F50111928A95E9F73CCF18
:103E40008D879E878D859E850E94780B8823B9F289
:103E5000EE20A9F28091D401803220F22091CF018E
:103E60003091D0013A8329831B82DD82CC828E83FC
:103E7000CE010196B5CFE83CF105E0F6FE2CEE2030
:103E800009F4BDCF491316C0381314C08091D40172
:103E900080FD83CF982F907F09F47FCFF801858331
:103EA000903F09F477CF982F907F905F8F70892B88
:103EB000858370CF8D879E878D859E850E94780B28
:103EC000811190CF8091D40181608093D401C80189
:103ED0000E94A916F1CEEE2009F491CF8D879E871E
:103EE0008D859E850E94780BF82E882309F487CF54
:103EF00086E0F801AFECB1E001900D928A95E1F710
:103F00008091CF019091D0010E946E0B0E94AC1D58
:103F1000D3CE21E02E25EACE1F93CF93DF93CDB7EA
:103F2000DEB767970FB6F894DEBF0FBECDBF4B8BE1
:103F30005C8B6D8B7E8B8F8B1A8A198A85E0FE01D4
:103F40007396DE011D9601900D928A95E1F786E049
:103F5000FE013D96DE01179601900D928A95E1F7DC
:103F6000CE0107960E94021E811112C086E0FE015A
:103F70003796DE01119601900D928A95E1F78A85B8
:103F80009B85892B29F08F81988589238F3FB1F5F7
:103F900016E0809106029091D50189131DC06796A5
:103FA0000FB6F894DEBF0FBECDBFDF91CF911F914A
:103FB000089596E0929FD001939FB00D1124AA52CC
:103FC000BE4FFE01319601900D929A95E1F78093D4
:103FD000D5010E948308DCCF819FC00111248A5241
:103FE0009E4F0E94021E8823D1F28091060290E02B
:103FF00001968770992780930602CBCF2091D50137
:1040000030E0C90101968770992740910602481750
:10401000190679F60E94B4101092D501109206028A
:1040200086E0EFECF1E0DF011D928A95E9F7B0CF71
:104030008F929F92BF92CF92DF92EF92FF920F9357
:104040001F93CF93DF938091370190913801892B93
:1040500091F08091BB018F5F8093BB0181110BC0F8
:104060000E941D0E90E09093380180933701892BB8
:1040700011F40E94D40CE2E58E2EE2E09E2E740133
:1040800010E000E077E0C72EC00E802F0E94C90D1F
:104090008C2D0E94C90D802F0E94940EE7019991EA
:1040A0007E01D12C891729F0FE0131978083DD2410
:1040B000D3948C2D0E94940EF7019681891709F4F0
:1040C0007CC0868381E08D29182B0E940E0C0F5F27
:1040D0000730C1F60E94C60F6091BD017091BE010C
:1040E0009093BE018093BD012091BC0130E0261B5E
:1040F000370B820F931F6BEF70E00E940126E82EB2
:10410000392F082F8093BC01F090C001FF2009F4E3
:10411000E4C01092C001E0914C02F0914D02AF0159
:10412000425F5F4F20E06BEFB62E6BEF70E0A19126
:10413000AB3FA1F0CA2ED12C8E2D932F0A1708F475
:104140003EC08C199D09092E000CAA0BBB0B0A97C7
:10415000A105B105D0F1DF011197BC92E417F50775
:1041600031F72093C001111102C02111B8C0109283
:10417000BF01A0914C02B0914D029091C001E5E6C3
:10418000F2E043E752E080E03191E40129914E01F1
:10419000321751F03C913B3FD1F40C93BF01615079
:1041A0007109EB01288391E011964E175F0761F7C3
:1041B0009093C0018093BF0196C080E084CFDB0163
:1041C000AC19BD098A0F9B1FBECF2F2DC7CF81E031
:1041D000EBCFF89EF001F99EF00D1124EA5FFE4F3F
:1041E000C288D388C114D10419F428ECC22ED12C72
:1041F000F89EE001F99ED00D1124CA5FDE4F8E813A
:104200008823B9F08D859E850E941807C816D906A7
:1042100080F40F9D600111248989811105C0C601B8
:104220008A5F9E4F0E94E708C601845F9E4F0E94EE
:1042300008090F5F802F90E0209132013091330107
:104240002817390734F656C000E086E1F82EF2CF81
:104250009170892B09F47BC08091C2019091C301B8
:104260008130984780F01092940260918E02709194
:104270008F0280919002909191020E94DA0B10922D
:10428000C3011092C2018091C2019091C3010196B5
:104290009093C3018093C201812FDF91CF911F9131
:1042A0000F91FF90EF90DF90CF90BF909F908F90F5
:1042B00008950E94D40B52C0892B71F31092C30150
:1042C0001092C20160918E0270918F0280919002D3
:1042D000909191020E94DA0BDFCF111148CF8091AB
:1042E000BF01811144CF8091320190913301019639
:1042F00009F0AACF8091360182FF17C00E94C60F35
:104300002091CA013091CB01AC01421B530B20918B
:104310003401309135014217530738F0BC018091C8
:10432000CC019091CD010E9425158091C201909100
:10433000C30120919402222309F4BECF009709F013
:1043400087CF0E94CB0B0E94C80B0E94C50BC09167
:10435000C101CC2309F4ADCF0E94C80B81E0C8276E
:10436000C093C10179CFCDB7DEB7C955D1090FB61A
:10437000F894DEBF0FBECDBF84B7877F84BF0FB672
:10438000F894A895809160008861809360001092F5
:1043900060000FBE80E890E00FB6F8948093610053
:1043A000909361000FBE85B7806885BF85B7806830
:1043B00085BF0E94E4030E94B1048091E200846002
:1043C0008093E20078948091BA028823A1F0109142
:1043D000E9001F709091EC00892F817090FD80E8BA
:1043E000182B1092E9008091E80083FD0E94C9100B
:1043F0001F701093E90082E084BD93E095BD9AEFB1
:1044000097BD80936E000E941D0E90E0909338013E
:10441000809337010E940E0C0E941D0CE2E5F2E031
:1044200065E6662E62E0762E80E692E0D301119278
:104430001D928E179F07D9F78EE090E00E94AE265E
:1044400080934C0290934D02FC010E962BEF21932A
:104450008E179F07E1F790E080E00E9474268F3E60
:104460009E4F11F00E944E0D89EA8093800089E0F2
:104470008093810024982C983F988AB18F7C8AB9C8
:104480006E98479A8BB180638BB9769A8FE090E0F3
:104490000E946E2660934E0270934F0280935002EA
:1044A0009093510267704FEF649FB001112475958E
:1044B0006795759567957727709389006093880055
:1044C00070938B0060938A0070938D0060938C00D2
:1044D0000E94D40C90E080E00E9474268F3E9E4F94
:1044E00011F00E944E0D82E090E00E9466268093BB
:1044F0007F020E942A0C909361028093600283E005
:1045000090E00E946626682F70E090E080E00E94B4
:10451000AA1060918E0270918F028091900290910A
:1045200091020E94DA0B89E391E0909363028093F9
:10453000620228E1C22ED12C33E7A32E32E0B32E43
:1045400041E4842E912C8C0E9D1EF2E08F0E911C66
:104550008091BA02853081F480E4F82E9EE0E92E45
:10456000E60C00E112E18091BA02853009F452C1F3
:104570000E94B4100E94DB080E941820E0E8F2E0DC
:10458000A5E6B2E010E000E0302F8D9121912817D0
:1045900009F48AC190E0FF24F3942827422F4F2189
:1045A00009F47DC161969FAF619762963FAF6297B4
:1045B0008F2191E009F490E063969FAF63970E948A
:1045C000C60F8160782F65969FAF8EAF6597619615
:1045D0004FAD619762965FAD629763966FAD6397DB
:1045E00065968FAD65970E948C1FF801E058FD4FCE
:1045F0008081F826F08285E0E9E7F2E0DE0111969D
:1046000001900D928A95E1F7F0907A02E0907B029A
:1046100010917C0200917D0210927A0210927B022E
:1046200010927C0210927D028F2D8E2909F448C0D1
:1046300080917702909178020E9418079C019091D6
:104640007602992309F4F9C125313105C8F19F3F5C
:1046500019F09F5F90937602FF2059F00E948C061C
:104660009FEF1F140CF491E0899F802D11248093FB
:104670007A02EE2059F00E948C069FEF1E140CF473
:1046800091E0899F802D112480937B0230917A02E2
:104690003323B1F020917B02222391F045EB3403C8
:1046A000C0011124992309F426C190937A0245EBA5
:1046B000240390011124332309F421C130937B0298
:1046C000812F802B09F448C080917402909175026B
:1046D0000E9418079C0190917302992309F4A8C1C4
:1046E00025313105C8F19F3F19F09F5F9093730208
:1046F000112359F00E946C069FEF11160CF491E003
:10470000899F802D112480937C02002359F00E9400
:104710006C069FEF10160CF491E0899F802D1124F8
:1047200080937D0230917C023323B1F020917D0291
:10473000222391F045EB3403C0011124992309F49D
:10474000E2C090937C0245EB2403900111243323B3
:1047500009F4DDC030937D0280917A0290917B0252
:10476000892B90917C02892B90917D02892B11F0ED
:104770000E94D20F85E0FE013196A9E7B2E00190D8
:104780000D928A95E1F70E94DB0890917E028917CD
:1047900021F00E94DB0880937E028091BA0284306F
:1047A00009F0D6CE85E08093E9008091E80082FF91
:1047B000CFCE8091E80090E085FF06C00E94030400
:1047C000882309F4A8C091E08091E8008B7780935A
:1047D000E800992309F4BCCE19811111B8C0809169
:1047E0009402882309F4CEC01092940281E0809351
:1047F000930222961FAE229723961FAE23978EEF29
:1048000024968FAF249763E0CE018F5B9F4F0E9469
:10481000D2059ECE8091BA02843009F110926402D2
:104820000FB6F894A895C09260000FBEF092600099
:1048300083B7817F846083BF83B7816083BF7894AF
:10484000889583B78E7F83BF0FB6F894A895809123
:104850006000886180936000109260000FBE8091BC
:10486000B902882309F47FCE0E941D0E90E0909338
:104870003801809337010E940E0C0E941D0CE5E662
:10488000F2E01192AE16BF06E1F70E941820E5E6AD
:10489000F2E081918111B6C0EE12FBCF64CE9F5F32
:1048A000FF0C963009F07ACE0F5F1F4F0E301105C6
:1048B00009F06ACE8FEF66968FAF669767968FAFD7
:1048C000679768961FAE68970E94C60F8160782F21
:1048D0006A969FAF8EAF6A9766964FAD669767965A
:1048E0005FAD679768966FAD68976A968FAD6A9768
:1048F0000E948C1F80CE81E080937A02D8CE81E026
:1049000080937B02DDCE81E080937C021CCF81E02E
:1049100080937D0221CF00E410E0CE0101967C015E
:104920008091E80085FD0AC08091E8008B77809334
:10493000E8000E940304882399F345CF8091F10099
:10494000F70181937F010150110951F73CCF1130DC
:10495000C9F422961FAE229723961FAF23978CE0AF
:10496000E9E4F1E0D40101900D928A95E1F78EEF30
:1049700060968FAF60976FE0CE018F5B9F4F0E9474
:10498000D205E6CD809193028823D1F1123041F017
:104990001330F9F081E022968FAF229761E034CF97
:1049A00060918E0270918F0280919002909191029D
:1049B0000E94860722961FAE229723961FAF239749
:1049C00024968FAF24978EEF25968FAF259764E0BE
:1049D0001BCF8A81813041F0882341F08230D1F6AB
:1049E00081E08093920202C01092920222961FAE42
:1049F000229783E023968FAF239780919202E0CF96
:104A00008FEFC9CF09BD19BD09B400FEFDCF80915C
:104A1000D8008F7D8093D8008091E00082608093E1
:104A2000E0008091E00081FDFCCF0E94B4109BCD9E
:104A30002139314008F059CE8FCE232B09F009CE11
:104A40003FCE1F921FB61F9211248F939F93AF9357
:104A5000BF9380916402811113C0809147029091AD
:104A60004802A0914902B0914A024196A11DB11D90
:104A70008093470290934802A0934902B0934A0260
:104A8000BF91AF919F918F911F901FBE1F9018955E
:104A90001092B9008CE08093B8000895EF92FF92D5
:104AA0000F931F93CF93DF93182FEB011092BC004D
:104AB00084EA8093BC000E94C60F7C018091BC00F8
:104AC00087FF27C08091B900887F883029F08091C6
:104AD000B900887F8031D9F51093BB0084E88093BA
:104AE000BC000E94C60F8C018091BC0087FF24C0CF
:104AF0002091B900287F90E080E02831B1F081E07A
:104B000090E0203411F490E080E091958195910936
:104B10000CC0CF3FDC0791F20E94C60F8E199F098F
:104B20008C179D0758F28EEF9FEFDF91CF911F9169
:104B30000F91FF90EF900895CF3FDC07A9F20E94FC
:104B4000C60F801B910B8C179D0770F2ECCF8FEF77
:104B50009FEFEBCF0F931F93CF93DF93EB018093E6
:104B6000BB0084E88093BC000E94C60F8C0180913A
:104B7000BC0087FF11C02091B900287F81E090E040
:104B8000283211F490E080E0919581959109DF91B0
:104B9000CF911F910F910895CF3FDC0741F30E9401
:104BA000C60F801B910B8C179D0708F38EEF9FEFAC
:104BB000EECF0F931F93CF93DF93EC0184E88093A4
:104BC000BC000E94C60F8C018091BC0087FF08C00A
:104BD0008091BB0090E0DF91CF911F910F910895DC
:104BE000CF3FDC0789F30E94C60F801B910B8C1707
:104BF0009D0750F38EEF9FEFEECF84E98093BC00CA
:104C00000895AA1BBB1B51E107C0AA1FBB1FA61713
:104C1000B70710F0A61BB70B881F991F5A95A9F765
:104C200080959095BC01CD01089597FB072E16F451
:104C3000009407D077FD09D00E94012607FC05D01B
:104C40003EF4909581959F4F0895709561957F4FA3
:104C50000895EE0FFF1F0590F491E02D09942F9217
:104C60003F924F925F926F927F928F929F92AF92FC
:104C7000BF92CF92DF92EF92FF920F931F93CF9349
:104C8000DF93CDB7DEB7CA1BDB0B0FB6F894DEBFE0
:104C90000FBECDBF09942A88398848885F846E8406
:104CA0007D848C849B84AA84B984C884DF80EE8050
:104CB000FD800C811B81AA81B981CE0FD11D0FB659
:104CC000F894DEBF0FBECDBFED010895F999FECF78
:104CD00092BD81BDF89A992780B50895A6E1B0E00C
:104CE00044E050E00C94A026A8E1B0E042E050E09F
:104CF0000C94A026262FF999FECF92BD81BDF89A7B
:104D0000019700B4021639F01FBA20BD0FB6F8940F
:104D1000FA9AF99A0FBE08950396272F0E947B26D0
:104D20000E947A26252F0E947B26242F0C947B2616
:104D30000196272F0E947B260C947A26DC01CB015A
:104D4000FC01F999FECF06C0F2BDE1BDF89A31969B
:104D500000B40D9241505040B8F708950F931F933F
:104D6000CF93DF938230910510F482E090E0E091E0
:104D7000C902F091CA0230E020E0B0E0A0E0309734
:104D800099F42115310509F447C0281B390B24304B
:104D90003105C0F58A819B816115710571F1FB01B7
:104DA00093838283FE0111C040815181028113816E
:104DB00048175907F8F04817590799F4109761F008
:104DC00012960C93129713961C933296CF01DF9193
:104DD000CF911F910F9108950093C9021093CA02B9
:104DE000F4CF2115310519F04217530718F49A0131
:104DF000BD01EF01DF01F801C2CF9093CA02809399
:104E0000C902D0CFFE01E20FF31F8193919322508C
:104E1000310939832883DACF2091C7023091C80243
:104E2000232B41F420910201309103013093C802F9
:104E30002093C70220910001309101012115310515
:104E400041F42DB73EB74091040150910501241B58
:104E5000350B4091C7025091C8024217530708F022
:104E6000B5CF241B350B2817390708F4AFCFBC0189
:104E70006E5F7F4F2617370708F4A8CF640F751FA2
:104E80007093C8026093C702FA01819391939ECFF9
:104E9000CF93DF930097E9F0FC01329713821282DF
:104EA000C091C902D091CA02DE0130E020E0209713
:104EB000A1F420813181820F931F2091C70230918C
:104EC000C8022817390709F067C0F093C802E093B9
:104ED000C702DF91CF910895DA01AE17BF0708F03E
:104EE00040C012964D915C9113979D01411551055B
:104EF00099F7D9011396FC93EE9312974D915D911A
:104F0000A40FB51FEA17FB0779F4808191810296FF
:104F1000840F951FD90111969C938E938281938162
:104F200013969C938E931297B0E0A0E08A819B81A8
:104F30000097B9F5FE0181919191E80FF91F8091D9
:104F4000C7029091C8028E179F0719F6109761F556
:104F50001092CA021092C902D093C802C093C7022D
:104F6000B8CFB383A28340815181840F951FA817C6
:104F7000B90771F44E5F5F4F8D919C911197480F67
:104F8000591F5183408312968D919C919383828304
:104F90002115310509F0ADCFF093CA02E093C902A3
:104FA00098CFDE01EC01C2CF13961C921E9212978D
:104FB000D3CFAEE0B0E0EFEDF7E20C943D260D89E3
:104FC0001E898F89988D26E02C831A83098397FF89
:104FD00002C080E090E801979E838D83AE01455E1C
:104FE0005F4F698D7A8DCE0101960E9409284D810F
:104FF0005E8157FD0AC02F813885421753070CF494
:105000009A01020F131FF80110822E96E4E00C940F
:105010005926ABE0B0E0EFE0F8E20C942F267C01DB
:105020003B018A01FC0117821682838181FFB9C18D
:105030009AE0292ECE0101965C01F7019381F301DC
:1050400093FD859193FF81913F01882309F446C127
:10505000853239F493FD859193FF81913F0185322B
:1050600029F4B70190E00E94EA29E7CF912C412C66
:10507000512CFFE1F51538F08B3209F188F48032BC
:1050800001F1833221F157FC3AC020ED280F2A307C
:1050900040F556FE1FC0929C200D1124922E06C092
:1050A0008D3291F0803379F7689450F8F30193FDD5
:1050B000859193FF81913F018111DBCF20C06894DE
:1050C00051F8689452F8F2CF689453F8EFCF68948F
:1050D00054F8ECCF429C200D1124422E689455F8D0
:1050E000E5CF8E3229F456FCF9C0689456F8DECF2D
:1050F0008C3619F4689457F8D9CF8836B9F2982FBE
:105100009F7D95549330C0F08336A1F18337C1F170
:10511000833509F05BC0F801C190D1908F01692DF2
:1051200070E056FC02C06FEF7FEFC6010E94D429E9
:105130004C01689457F80AC00C5F1F4F2FE3298376
:1051400088248394912C6501E89457F853FC04C09B
:105150004814190409F018F5342C8114910431F520
:10516000332009F46ACFB70180E290E00E94EA2977
:105170003A94F6CFF801808189830E5F1F4FE0CF0C
:10518000F801C190D1908F01692D70E056FC02C0EA
:105190006FEF7FEFC6010E94DF294C01D5CFB70129
:1051A00080E290E00E94EA294A94D2CFF60157FCAF
:1051B000859157FE81916F01B70190E00E94EA2925
:1051C00031103A94F1E08F1A9108C7CF843619F064
:1051D000893609F074C0F80157FE6AC06191719177
:1051E000819191918F01252D2F76D22E97FF09C0A5
:1051F00090958095709561957F4F8F4F9F4F6894E4
:10520000D7F82AE030E0A5010E941A2AC82ECA1851
:105210008C2C5D2CD6FE0CC0E89450F8C91440F4D8
:10522000D4FE05C0D2FC03C0FD2DFE7E5F2E892C6E
:1052300054FE8FC0FE01EC0DF11D8081803309F01A
:1052400081C0252D297E522E852D8870382E53FC45
:105250008FC050FE89C09C2C841418F44C0C942CE4
:10526000981854FE8BC0B70180E390E00E94EA29B1
:1052700052FE09C088E790E051FE02C088E590E048
:10528000B7010E94EA29C91408F484C0CA94D12C39
:105290009FEFC91AD90ACA0CDB1CF60182916F0173
:1052A000B70190E00E94EA29AC14BD04B1F758CFD1
:1052B00061917191072E000C880B990B93CFD52C1F
:1052C000E894D4F82AE030E0853739F1952D997FBC
:1052D000D92E8F3601F148F48835A9F0F70186817F
:1052E00097812B96E2E10C944B26803749F0883762
:1052F000A9F7D4FE02C06894D2F820E130E00DC0D6
:105300006894D4F8F6CF54FE03C0E92FE660DE2E91
:1053100020E132E002C028E030E0F801D7FE0DC005
:1053200061917191819191918F01A5010E941A2A39
:10533000C82ECA18E894D7F86BCF6191719190E0AC
:1053400080E0F2CF52FC02C083947ECF839483949A
:105350007BCF852D867809F477CFF6CFB70180E231
:1053600090E00E94EA2983948414C0F3312C79CF11
:10537000342C3818841408F474CFF8CF852D86782F
:1053800009F481CF8BE251FE80E257FC8DE2B70138
:1053900090E077CFB70180E390E00E94EA299A94E9
:1053A00072CF8FEF9FEF9DCFFC0105906150704051
:1053B0000110D8F7809590958E0F9F1F0895FC01DE
:1053C0006150704001900110D8F7809590958E0F34
:1053D0009F1F08950F931F93CF93DF93182F092FCB
:1053E000EB018B8181FD09C01FEF0FEF812F902F03
:1053F000DF91CF911F910F91089582FF14C02E81EC
:105400003F818C819D81281739073CF4E881F9811F
:10541000CF0101969983888310838E819F810196A5
:105420009F838E83E3CFE885F985812F0995892BAA
:10543000A1F3DACFFA01AA27283051F1203181F106
:10544000E8946F936E7F6E5F7F4F8F4F9F4FAF4F8C
:10545000B1E03ED0B4E03CD0670F781F891F9A1F9F
:10546000A11D680F791F8A1F911DA11D6A0F711D53
:10547000811D911DA11D20D009F468943F912AE05F
:10548000269F11243019305D3193DEF6CF01089547
:10549000462F4770405D4193B3E00FD0C9F7F6CF78
:1054A000462F4F70405D4A3318F0495D31FD405240
:1054B000419302D0A9F7EACFB4E0A69597958795D6
:1054C00077956795BA95C9F70097610571050895B5
:1054D0009B01AC010A2E0694579547953795279561
:1054E000BA95C9F7620F731F841F951FA01D0895F9
:1054F000F894FFCF870B870B900B900B920B900BC0
:10550000900B900B870B870B970B900B900B970BC7
:10551000F50B010C060CFF0B040C0B0C090CEA112B
:1055200012126713121267134512661267131213D1
:105530001F13EA1AEA1A5C1B5C1BAD1BC71B1C1B62
:0A5540001C1BD21BA81CB71CB71CD3
:10554A000000CB0220004D168A161D140000000030
:10555A000000000000000000000000002F166B167B
:10556A00011400000000000000000000000000001C
:10557A000000FFFF7D00012000CF05940C730C6F23
:10558A000C6B0C010A25640A004D6E5A774B2F7971
:10559A007039563000818283E200E900EA00B500E2
:1055AA00B600B700CD008301CC008A0192019401B4
:1055BA002102230224022502260227022A02B3001C
:1055CA00B4006F007000404D6D66011901AC00987F
:0655DA0006B106CA06003E
:00000001FF
