:100000000C9472040C948F040C948F040C948F0441
:100010000C948F040C948F040C948F040C948F0414
:100020000C948F040C948F040C94790F0C942D1461
:100030000C94B0260C948F040C948F040C948F04B1
:100040000C948F040C948F040C948F040C948F04E4
:100050000C948F040C9450100C948F040C948F0407
:100060000C948F040C948F040C948F040C948F04C4
:100070000C948F040C948F040C948F040C948F04B4
:100080000C948F040C948F040C948F040C948F04A4
:100090000C948F040C948F040C948F040C948F0494
:1000A0000C948F040C948F040C948F040501098028
:1000B000A101850319012AB700150126B700950192
:1000C00075108100C0050C0901A101850419012AE0
:1000D000A002150126A002950175108100C005013E
:1000E0000906A1018505050719E029E71500250185
:1000F0009508750181020507190029EF15002501F2
:1001000095F075018102050819012905950575010C
:100110009102950175039101C005010902A1010930
:1001200001A100050919012905150025019505758D
:10013000018102950175038101050109300931151D
:1001400081257F95027508810609381581257F95DF
:100150000175088106050C0A38021581257F950175
:1001600075088106C0C005010906A101050719E04F
:1001700029E715002501950875018102950175088B
:1001800081010507190029FF150026FF0095067556
:100190000881000508190129059505750191029549
:1001A0000175039101C00000000000000000000084
:1001B000000000000000000000007E0F00D4FFFFE0
:1001C000FFC70000007800000000000000002A2B9C
:1001D00028000000000000000000000000000000F7
:1001E0000029000000002C1E342021222434262760
:1001F000252E362D3738271E1F2021222324252681
:100200003333362E37381F0405060708090A0B0C4E
:100210000D0E0F101112131415161718191A1B1C96
:100220001D2F3130232D350405060708090A0B0C54
:100230000D0E0F101112131415161718191A1B1C76
:100240001D2F3130354C0102E101012C0103E10089
:100250000102E00102E101012C0103E10103E000E0
:100260000102E00101050103E0000102E30102E1F6
:1002700001010D0103E10103E30029002B0035001A
:10028000E100E00000001E00140004461D00E20032
:1002900005581F001A0016441B002D5D2F5D20001D
:1002A0000800074306002E5D2C6821001500094256
:1002B0001900E2000153220017000A0005000000A7
:1002C00001572300340000000057000039002400CB
:1002D0003402000002570000A90025001C000B009A
:1002E000110000004900260018000D001000500009
:1002F000AA0027000C000E003600510028782D00BF
:1003000012000F00370052004C002E001300330083
:1003100038004F00A8002A00310028003400095D91
:1003200000000100010001000100010000000100C7
:10033000010001000100E3000100010001000100D3
:1003400001000100305D0100010001000100010019
:1003500001000100010001000100E20001000100B4
:100360000100010001000000010001000100000087
:1003700003570000010001000100000004570000C5
:100380000100010001000100110000000100010056
:100390000100010001000100010001000100010055
:1003A0000100010001000100010001000100010045
:1003B00001000100010001000100010001002A000C
:1003C0000100010001000100000001000100010026
:1003D0000100010000000100010001000100010016
:1003E0000100010001000100010001000100010005
:1003F00001000100010001000100010001000100F5
:1004000001000100010001000100010001000000E5
:1004100001000100010000000100000001000100D6
:10042000010000000100000001000100350234005D
:1004300034020000010001002F0226022F000100FB
:10044000010001003002270230000100010001001C
:1004500033022D02360201000100010031022E029A
:10046000370201000100010001000100010001004C
:100470000000010001000100010001000000010076
:100480000100010001000100010001000100010064
:100490000100010001000100010001000100010054
:1004A0000100010001000100010001000100010044
:1004B0000100010001000000010001000100000036
:1004C0000100000001000100010000000100000027
:1004D000010001004A00500001000000010001007D
:1004E0004E00510001000100010001004B005200CC
:1004F00001000100010001004D004F00010001005A
:1005000001000100010001000100010001000100E3
:1005100001000100010001000000010001000100D4
:1005200001000100000001000100010001000100C4
:10053000010001000100010001000100F6000100BE
:100540000100010001000100F400010001000100B0
:100550000100010001000100010001000100000094
:10056000010001001A5C0000195C0000010001009C
:10057000185C0000175C000001000100FB00F200A5
:100580000100000001000100FA00F100010001007B
:1005900001000100F900F00001000100F500010078
:1005A000FC00F30001000100010001004700010010
:1005B0000100010001000100FF00FE00FD0001003C
:1005C0000000010001000100010001000000010025
:1005D0000100010001000100010001000100010013
:1005E0000100010001000100010001000100010003
:1005F00001000100010001000100010001000100F3
:1006000001000100010000000100010001000000E4
:1006100001000000010001006A0000006900000004
:10062000010001003A003F00440000000100010009
:100630003B00400045000100010001003C0041007A
:1006400068000100010001003D0042006900010056
:10065000010001003E0043006A00010001000100AA
:100660000100010001000100000001000100010083
:100670000100010000000100010001000100010073
:100680000100010001000100010001000100010062
:100690000100010001000100010001000100010052
:1006A0000100010001000100010001000100000043
:1006B0000100010001000000010000000100010034
:1006C0000100000001000000010001000100010024
:1006D0002700000001000100240021001E0001008D
:1006E00001000100250022001F000100010001009F
:1006F000260023002000010001000100010001008C
:1007000001000100010001000100010001000100E1
:1007100000000A00000000000306B200080001000B
:100720000000A800080002000300A000140003005D
:1007300057494E55534200000000000000000000E1
:100740008400040007002A00440065007600690068
:100750006300650049006E00740065007200660069
:1007600061006300650047005500490044007300C4
:10077000000050007B003900440042003700460072
:100780003100460044002D0037004500370041008D
:100790002D0034003000300038002D0039003300C7
:1007A000360042002D003600420041003600430072
:1007B00031003900410033003000380063007D0013
:1007C000000000001B0301636F6E66696775726548
:1007D0002E6572676F646F782D657A2E636F6D007A
:1007E00009026B00040100A0FA09040000010301E2
:1007F00001000921110100012240000705810308C1
:10080000000A09040100010301020009211101008D
:1008100001224D000705820308000A0904020001B5
:1008200003000000092111010001226D000705836A
:100830000320000A0904030002FF000000070584EA
:1008400003400005070505034000051201100200E2
:1008500000000897327449010001020001160345A7
:1008600000720067006F0044006F007800200045B0
:10087000005A00000030035A005300410020005489
:10088000006500630068006E006F006C006F006719
:1008900000790020004C00610062007300200049D4
:1008A000006E006300000004030904050F39000214
:1008B0001C100500DF60DDD88945C74C9CD2659DC2
:1008C0009E648A9F00000306B200450018100500D0
:1008D00038B60834A909A0478BFDA0768815B665FF
:1008E0000001420011241FBECFEFDAE0DEBFCDBF12
:1008F00011E0A0E0B1E0E8E6F8E502C005900D9255
:10090000A63DB107D9F723E0A6EDB1E001C01D92E5
:10091000A131B207E1F70E9442230C94072C0C94FA
:100920000000E8EDF0E080818E7F80831092E2008D
:100930001092DA001092E100A0EEB0E08C9181609C
:100940008C9380818F77808319BCA7EDB0E08C9168
:100950008E7F8C9380818F7E80831092DB0208953E
:100960002091E4003091E50095E6A9012091EC008A
:10097000822F817020FF06C08091E80080FF06C0B2
:1009800080E008952091E80022FD1AC080910003C4
:10099000882389F0853089F08091EB0085FD0FC0B8
:1009A0002091E4003091E50042175307F9F291508D
:1009B000E1F684E0089582E0089583E0089581E0FF
:1009C0000895EF92FF920F931F93CF937C018B01B9
:1009D0000E94B004C82F882371F08C2FCF911F91F3
:1009E0000F91FF90EF900895F70181917F0180931F
:1009F000F100015011090115110579F38091E8000A
:100A000085FDF2CF8091E8008E778093E8000E9408
:100A1000B004882381F3C82FE0CF8091020387FFC1
:100A200013C08091E80082FF06C08091E8008B77B8
:100A30008093E80004C0809100038111F2CF0895F3
:100A4000809100038823D9F38091E80080FFF8CFDC
:100A50008091E8008E77ECCF982F9093E900242FB7
:100A6000762F50E0891731F07091EC002091ED0065
:100A70005091F00021FD07C09F5F973071F7809380
:100A8000E90081E008953091EB003E7F3093EB0068
:100A90003091ED003D7F3093ED003091EB003160FF
:100AA0003093EB007093EC002093ED005093F00036
:100AB0002091EE0027FDE0CF80E00895CF92DF92F5
:100AC000EF92FF920F931F93CF93DF93C8EDD0E087
:100AD00088818F7E8883E7EDF0E08081816080836C
:100AE00084E082BF81E08093DB0288818E7F8883EF
:100AF00002EE10E0F80110821092DA0081EEC82EAA
:100B0000D12CF601108288818F7788838881806854
:100B1000888388818F7D888319BC1092000310928E
:100B200001031092FF021092FE0290EEE92EF12CCA
:100B3000F70180818B7F808388818160888342E098
:100B400060E080E00E942C05F60180818E7F80832A
:100B5000F801808181608083808188608083F701D3
:100B600080818E7F8083888180618883DF91CF91AF
:100B70001F910F91FF90EF90DF90CF900895FC01AF
:100B8000809108039091090386179707A0F06115DB
:100B9000710529F48091E8008E778093E80090E059
:100BA0006115710551F4911108C08091E80082FF30
:100BB00035C080E00895BC01F2CF80910003882306
:100BC000C9F18530C9F18091E80083FD31C0809181
:100BD000E80082FDEACF8091E80080FFE1CF8091BC
:100BE000F3002091F200382F6115710519F02830BB
:100BF000310558F091E02830310509F090E08091FE
:100C0000E8008E778093E800CBCF84918093F10049
:100C10003196615071092F5F3F4FE6CF80910003FD
:100C2000882341F0853041F08091E80083FFBDCFFB
:100C300081E0089582E0089583E00895FC018091A9
:100C400008039091090386179707A0F061157105B5
:100C500029F49091E8009E779093E80090E0611568
:100C6000710551F4911108C08091E80082FF34C0F1
:100C700080E00895BC01F2CF809100038823C1F188
:100C80008530C1F18091E80083FD30C08091E8009B
:100C900082FDEACF8091E80080FFE1CF8091F300F0
:100CA0002091F200382F6115710519F028303105B7
:100CB00058F091E02830310509F090E02091E800EB
:100CC0002E772093E800CBCF81918093F100615083
:100CD00071092F5F3F4FE7CF80910003882341F0D8
:100CE000853041F08091E80083FFBECF81E0089518
:100CF00082E0089583E008958091DD0208952091B7
:100D00000003243091F42093E90070E050E040E0CB
:100D10000E94E104882321F01092D9021092DA0295
:100D20008091E8008E778093E80008959091C0024A
:100D3000803F59F48091C10287FF0DC01092C1021B
:100D400091110BC01092BC0208C0813F81F48091C8
:100D5000C10218169CF3992381F08091C2029091F0
:100D6000C302892B09F064C01092B9020895823F32
:100D700049F497FFF0CF1092C0028091C102811117
:100D8000ECCFE0CF833F19F41916ACF3E4CF2091F8
:100D9000C202893F29F41216F4F61092C202DBCF88
:100DA0008A3F19F427FFD7CFF8CF2091C3028B3F9A
:100DB00029F427FFD0CF1092C302CDCF8C3F19F476
:100DC0001216CCF3C8CF843F31F48091BF028E7FDE
:100DD0008093BF02C0CF853F21F48091BF028D7FF9
:100DE000F7CF863F21F48091BF028B7FF1CF873F01
:100DF00021F48091BF02877FEBCF883F21F480915F
:100E0000BF028F7EE5CF8D3F31F4809191028E7FBE
:100E100080939102A0CF8E3F21F4809191028D7F2B
:100E2000F7CF8F3F09F097CF809191028B7FF0CF62
:100E300008958091910280FD1AC081FD14C082FD49
:100E400014C08091B902882391F08C3370F427E0AC
:100E5000829FC00111246CE370E00E94A427862FBA
:100E6000672B29F0089583E0089587E0089581E0D5
:100E700008958091910280FD16C081FD16C082FD0B
:100E800018C08091BC02882391F08C3390F423E247
:100E9000829FC00111246CE370E00E94A427862F7A
:100EA000672B49F0089588E0089581E1089585E071
:100EB000089583E2089581E00895803F31F40E940F
:100EC000390781958093C1020895813F19F40E94EA
:100ED0003907F8CF823F31F40E943907819580931A
:100EE000C0020895833F19F40E943907F8CF893F63
:100EF00029F40E9419078093C20208958A3F21F4C1
:100F00000E9419078195F7CF8B3F31F40E94190792
:100F100081958093C30208958C3F19F40E941907AC
:100F2000F8CF843F31F48091BF0281608093BF028B
:100F30000895853F21F48091BF028260F7CF863FFC
:100F400021F48091BF028460F1CF873F21F480912A
:100F5000BF028860EBCF883F21F48091BF0280619F
:100F6000E5CF8D3F31F480919102816080939102B1
:100F700008958E3F21F4809191028260F7CF8F3FD8
:100F8000B9F7809191028460F1CF9C014FB7F8943A
:100F900080918D0290918E02A0918F02B09190026B
:100FA0004FBF821B930B0895209184012223C9F027
:100FB0002091A60227FF15C0E62FE695E695E69557
:100FC000EE31D8F4E80FF92FF11D677021E030E021
:100FD00001C0220F6A95EAF7209582812823228397
:100FE0000895FC01329608962191621303C0DF0137
:100FF00011971C92E817F907B9F708952091840119
:101000002223C1F02091A60227FF14C0E62FE69507
:10101000E695E695EE31F8F4E80FF92FF11D6770CB
:1010200021E030E001C0220F6A95EAF78281822B2D
:1010300082830895FC0132962FEF30E041916417CE
:1010400051F02F3F19F4411101C0232F3F5F36307B
:10105000A9F72F3F09F40895820F911D27FD9A9556
:10106000FC0162830895CF92DF92EF92FF926C01B0
:10107000EE24FF2420E0C114D104E104F10419F0AE
:10108000C701B60120E1C72ED82EE92EFF24C114D6
:10109000D104E104F10419F0285FC701B6016B0126
:1010A0007C0154E0F694E794D794C7945A95D1F70D
:1010B000C114D104E104F10419F02C5FC701B60199
:1010C0006B017C0142E0F694E794D794C7944A956B
:1010D000D1F7C114D104E104F10419F02E5FC70166
:1010E000B6019695879577956795672B682B692B41
:1010F00009F02F5F822FFF90EF90DF90CF9008953F
:1011000080918802811110928802089580959091B3
:101110008702982390938702089580959091860284
:101120009823909386020895809186029091870279
:10113000892B90918502892B8093D601909188020A
:101140009923A1F0892B8093D60180918401882373
:1011500041F18091A60287FF24C08EE1E8EDF1E025
:1011600090E0815000F591110E948008E091A80262
:10117000F091A9023097E1F080918401882359F021
:101180008091A60287FF07C08091D6018093D70186
:1011900085E08093D6010280F381E02D86ED91E019
:1011A000099486E0DBCF21912223D9F29F5FD9CF2A
:1011B0000895E92FEE0FE90FEE0F8E0F982F97701D
:1011C00086958695869525E0829FF0011124E35B44
:1011D000FD4F50E040E080E0219130E0092E02C058
:1011E000369527950A94E2F721703327042E01C023
:1011F000220F0A94EAF7822B4F5F5F4F453051056B
:1012000059F70895E92FEE0FE90FEE0F8E0F982F83
:10121000977041E001C0440F9A95EAF7869586954C
:10122000869595E0899FF0011124E35BFD4F30E046
:1012300020E070E05191DF011197CB01022E02C036
:10124000969587950A94E2F7817081958527842386
:1012500085278C932F5F3F4F2530310559F708952F
:1012600080914C0290911B02981301C008958F5FEA
:101270008770FACF882321F00E9486080C94940886
:101280000895882339F090918702982B90938702D4
:101290000C9494080895882321F00E948D080C94E2
:1012A00094080895882339F090918602982B9093A2
:1012B00086020C949408089520910C0230910D023E
:1012C0002817390771F090930D0280930C02E0917A
:1012D000A802F091A902309721F00084F185E02D59
:1012E0000994089520910A0230910B0228173907BA
:1012F00071F090930B0280930A02E091A802F091A2
:10130000A902309721F00680F781E02D0994089515
:10131000E091A802F091A902309721F00190F081AC
:10132000E02D099480E00895CF93DF93EC0181E0F4
:10133000898B809186029F81892B80938602809180
:1013400087029885892B809387020E949408EA81FE
:10135000FB81309739F06C897D89CE010696DF914B
:10136000CF910994DF91CF910895EF92FF920F935F
:101370001F93CF93DF93EC018A85811134C0EB80FA
:10138000FC8087E5F81A26E12E9DC0012F9D900D67
:101390001124DC01AA5FBE4F1496ED91FC911597C4
:1013A000309731F054966D917C91845F9E4F0995F2
:1013B00086E18E9D80018F9D100D11240A5F1E4FC6
:1013C000F80187810E948D08F80180850E948608B7
:1013D0000E949408188219861B861E821D82109214
:1013E0000F0210920E02DF91CF911F910F91FF908B
:1013F000EF9008959091A60292FF06C0282F2871C1
:101400002830F9F4877F846093FF06C0282F287165
:101410002831F1F4877E84612091A70220FF06C065
:10142000382F38713830D9F4877F816021FF06C0AA
:10143000282F28712831D1F4877E816194FD877E21
:101440000895282F24712430F9F68B7F8860DCCF33
:10145000282F2471243101F78B7E8861DDCF382F4E
:101460003171313019F78E7F8860E0CF282F2171DC
:10147000213121F78E7E8861E1CFCF93DF93972FC3
:1014800070E026E0929F600D711D1124FB0134E590
:10149000839FE00DF11D1124EE0FFF1FE658FD4F55
:1014A000C591D491CE01C238D105B9F1E8F5C13367
:1014B000D10509F499C050F5C932D10509F48DC0A0
:1014C000CA32D10509F497C0C11521E5D20708F049
:1014D000BFC0C11530E5D30708F016C1C83ED1051D
:1014E00008F09DC0C03ED10568F5C83AD10508F0A6
:1014F00089C0C53AD10508F0FFC0C130D10511F14E
:10150000209709F443C02497E8F440C0C533D105BF
:1015100009F45CC0C933D105B9F62091A602237045
:1015200089F080EE90E00EC0C33ED10591F168F4E1
:10153000C03ED105F9F0C23ED10531F62091A60298
:1015400022FD20C0DF91CF910895C63ED10561F103
:10155000C73ED10581F1C43ED10509F0B5CF209138
:10156000A70221FFEFCF8091A60284FD0FC087EE76
:1015700090E0E8CF2091A60220FD12C13091A70291
:1015800030FFE0CF83EE90E024FFDCCF90E080E0FE
:10159000D9CF2091A60222FD06C13091A70230FDCD
:1015A000C0CF24FFCFCFF2CF2091A60223FFCACF16
:1015B00024FDECCFDCCF2091A60223FDF7C03091B3
:1015C000A70231FFEECF84EE90E0BCCF2091A602BF
:1015D00025FFB8CF89E290E0B5CF2091A60225FF84
:1015E000B1CF85E390E0AECF2091A60226FFAACF2F
:1015F0008AE290E0A7CF2091A60226FFA3CF81E345
:1016000090E0A0CFCF3BD10508F6C85AD0E0CC0F70
:10161000DD1FC756DE4F88819981946493CFC11531
:1016200020E2D20760F4C11531E0D30708F08ACF79
:10163000CE019065C03FD10508F084CFA7CFC1157A
:1016400080E4D80708F4A2CFCE019F70906A7ACFC9
:10165000C11595E5D90710F5C11524E5D20708F0A5
:1016600088C0C11533E5D30708F06FC0C11582E506
:10167000D80708F465C09E012370332781E090E00D
:1016800002C0880F991F2A95E2F7C695C69520E2F9
:10169000C29FE00111248C2B9D2B50C0C11599E5F0
:1016A000D907A0F4C11528E5D20708F067C0C11515
:1016B00036E5D30708F06ACF8C2F0E94FA0990E034
:1016C000982F882788279F7190623CCFC1158AE5A3
:1016D000D80708F458C0CE0190568115904208F002
:1016E00055CF8D2F8F710E94FA0990E0982F88278F
:1016F00088279F718C2BE8CFC55AD0E0CA56DE4FA1
:10170000888190E090641ECF9E01E4E03695279595
:10171000EA95E1F723708C2F86958695837030E2E9
:10172000839FC0011124922BC37021E030E002C0DE
:10173000220F331FCA95E2F7822B932B9C6802CFAE
:101740009C2F8827816F906AFDCE9E0123703327DE
:1017500081E090E002C0880F991F2A95E2F7C695B4
:10176000C69530E2C39FE00111248C2B9D2B9A6813
:10177000E9CE9C2F8827846F906AE4CE9C2F88271F
:10178000806F906ADFCE8C2F8F700E94FA0934E050
:10179000D695C7953A95E1F7CF709C2F9069D2CE38
:1017A00089E390E0CFCE82EE90E0CCCE86EE90E062
:1017B000C9CEBF92CF92DF92EF92FF920F931F9309
:1017C000CF93DF938C01C090D402D090D502E090EB
:1017D000D602F090D7028091890290918A02A0915E
:1017E0008B02B0918C02C82AD92AEA2AFB2ACFE1BF
:1017F000D0E0BC2ED701C6010C2E04C0B695A7952B
:10180000979587950A94D2F780FD0EC0219788F7A7
:10181000B12C8B2DDF91CF911F910F91FF90EF9005
:10182000DF90CF90BF900895B8018C2F0E943D0AA1
:10183000019761F3EECFCF93DF93EC010E94D90BB8
:10184000BE01DF91CF910C943D0A0E941B0C292F01
:101850002F7092959F7092509E3078F4E92FF0E0AF
:10186000E75FF34D0C94B827803F19F020F4883ED1
:1018700020F481E00895843FE1F380E00895883EFC
:10188000C0F3813FD1F7F5CF822F86958695869557
:1018900008959C019A9581159F4140F4832F817092
:1018A00031FD826033FD8860FB0109940895FC01DD
:1018B0008081813041F49185911114C092859923E2
:1018C00089F082E00895823041F48185811107C05A
:1018D0008285811106C083E0089586E0089585E041
:1018E000089584E0089527982F98089526982E98B3
:1018F000089525982D98089556985E980895279AEA
:101900002F9A0895269A2E9A0895259A2D9A089529
:10191000CF92DF92EF92FF92CF936B017C010E94F6
:101920003308C82F0E947C0C0E94790C0E94760C10
:101930000E94730CC150C73040F4EC2FF0E0E95E18
:10194000F34D0C94B8270E94850CC701B601CF91C6
:10195000FF90EF90DF90CF9008950E94850C0E9439
:10196000820CF3CF0E94850C0E947F0CEECF0E9468
:10197000850C0E94820CF8CF2098289821982998ED
:1019800022982A9823982B9852985A9853985B98A3
:101990003E98469808958098889A8198899A849864
:1019A0008C9A85988D9A86988E9A87988F9A0895A2
:1019B000CF9384E090E00E94F527C82F81E290E069
:1019C0000E94F527982F8C2FCF910895CF93DF9306
:1019D00000D00F92CDB7DEB790910003943019F587
:1019E00089837B836A8383E08093E9008FEF909102
:1019F000E800815095FD06C095ED9A95F1F700003D
:101A00008111F5CF8091E80085FF0DC050E040E0E6
:101A100063E070E0CE0101960E94E1048091E8004D
:101A20008E778093E8000F900F900F90DF91CF9109
:101A30000895BC0184E00C94E60CBC0183E00C9496
:101A4000E60C9C0182E08093E9009FEF8091E80022
:101A5000915085FD06C085ED8A95F1F70000911142
:101A6000F5CF8091E80085FF0CC050E040E065E0D4
:101A700070E0C9010E94E1048091E8008E778093B4
:101A8000E8000895CF93DF93EC01809184018823CF
:101A9000B1F18091A60287FF32C060E283E08093BB
:101AA000E9008FEF9091E800815095FD06C095ED1B
:101AB0009A95F1F700008111F5CF8091E80085FF3C
:101AC0001BC08091840170E050E040E0811104C0AF
:101AD00050E040E068E070E0CE010E94E1048091B7
:101AE000E8008E778093E80080E2FE01AEEDB2E080
:101AF00001900D928A95E1F7DF91CF91089568E00A
:101B000081E0CDCFEF92FF920F931F93CF93DF939E
:101B10000E947C0C0E94790C0E94760C0E94730C2F
:101B200088E8E82EF12C8FEF90E0F7019183808315
:101B30000AE810E0F80191838083CCE8D0E0998333
:101B400088830E94850CFFEF20E782E0F15020405F
:101B50008040E1F700C000000E94820C9FEFE0E7A8
:101B6000F2E09150E040F040E1F700C000000E9438
:101B70007F0C2FEF80E792E0215080409040E1F70A
:101B800000C000000E94790CEFEFF0E722E0E15086
:101B9000F0402040E1F700C000000E94760C8FEF7B
:101BA00090E7E2E081509040E040E1F700C00000A3
:101BB0000E94730C809194028770FFEF8F9FC00189
:101BC000112495958795959587959927F701918388
:101BD0008083F80191838083998388830E947C0CA1
:101BE0000E94790C0E94760CDF91CF911F910F918A
:101BF000FF90EF900C94730C6FEE7EEF90E080E01E
:101C00000E94272860E082E090E00E94092860E0BE
:101C100083E090E00E9409281092890210928A02C3
:101C200010928B0210928C0260E084E090E00E949F
:101C3000092860E081E290E00E94092860E085E0E8
:101C400090E00E94092860E086E090E00E94092868
:101C50006FEF87E090E00E94092840E050E0BA0171
:101C600088E090E00E941B2860E08DE090E00E94F8
:101C7000092840E050E0BA0188E190E00E941B286A
:101C800060E087E190E00E94092840E050E0BA015E
:101C90008CE190E00E941B2860E080E290E00E94CE
:101CA000092840E050E0BA0188E190E00E941B283A
:101CB000109294021092950210929602109297023E
:101CC00084E0806180939402409194025091950247
:101CD00060919602709197028FE090E00E941B281D
:101CE00040E050E0BA0183E190E00C941B28CF93D0
:101CF000C82F873070F58091780190917901892BF8
:101D000089F564E670E080E40E94DD269093790115
:101D100080937801892BD1F464E670E082E10E941F
:101D200039279093790180937801892B79F481E0A8
:101D300090E001C0880FCA95EAF764E670E08095EC
:101D40000E9439279093790180937801CF910C9468
:101D50008C278A30B9F040F4883071F0893079F0FE
:101D6000209A2898CF9108958C3091F070F08D30A2
:101D7000B9F73E9A4698F6CF219A2998F3CF229A3E
:101D80002A98F0CF239A2B98EDCF529A5A98EACFFF
:101D9000539A5B98E7CF80E290E09093790180932B
:101DA00078018091F60181110EC00E94D72681E052
:101DB0008093F6012FEF83ED90E321508040904017
:101DC000E1F700C0000064E670E080E40E94DD26D8
:101DD0009093790180937801892B09F04EC064E6D5
:101DE00070E080E00E943927909379018093780118
:101DF000892B09F042C064E670E080E00E94392738
:101E00009093790180937801892BB9F564E670E0AD
:101E10008FE30E9439279093790180937801892B71
:101E200061F50E948C2764E670E080E40E94DD2664
:101E30009093790180937801892BF9F464E670E03E
:101E40008CE00E9439279093790180937801892B47
:101E5000A1F464E670E080E00E9439279093790154
:101E600080937801892B49F464E670E08FE30E9447
:101E7000392790937901809378010E948C27809173
:101E800078010895CF93873050F580917801909133
:101E90007901C0E0892B71F464E670E081E40E946E
:101EA000DD269093790180937801892B31F0C0E091
:101EB0000E948C278C2FCF91089584E690E00E9499
:101EC000682797FF05C09093790180937801EFCF41
:101ED000C82FC0951092790110927801E9CFCFB147
:101EE0008FB1869586958C73C3708C2BC82FC09547
:101EF000E1CF1F920F920FB60F9211242F933F93B1
:101F00004F935F936F937F938F939F93AF93BF9301
:101F1000EF93FF938091E10082FF09C08091E2007E
:101F200082FF05C08091E1008B7F8093E10080916A
:101F3000DA0080FF24C08091D80080FF20C080910B
:101F4000DA008E7F8093DA008091D90080FF9BC0F9
:101F500080E189BD82E189BD09B400FEFDCF81E049
:101F6000809300038091DB02811109C00E949104DB
:101F70000E945E058091E20084608093E20080917F
:101F8000E10080FF17C08091E20080FF13C08091C4
:101F9000E2008E7F8093E2008091E2008061809376
:101FA000E2008091D80080628093D80019BC85E05F
:101FB000809300038091E10084FF29C08091E200BA
:101FC00084FF25C080E189BD82E189BD89B5982F54
:101FD000917080FFFBCF8091D8008F7D8093D800D7
:101FE0008091E1008F7E8093E1008091E2008F7EFE
:101FF0008093E2008091E20081608093E200809112
:102000000103882309F445C084E080930003809194
:10201000E10083FF27C08091E20083FF23C080910D
:10202000E100877F8093E10082E0809300031092BB
:1020300001038091E1008E7F8093E1008091E200B6
:102040008E7F8093E2008091E20080618093E200C5
:1020500042E060E080E00E942C058091F000886002
:102060008093F000FF91EF91BF91AF919F918F917D
:102070007F916F915F914F913F912F910F900FBE84
:102080000F901F90189519BC109200031092DB025C
:1020900076CF8091E30087FD93E090930003B7CF64
:1020A00078941F921FB61F9211248F939F93AF9322
:1020B000BF9380918D0290918E02A0918F02B0917A
:1020C00090020196A11DB11D80938D0290938E0206
:1020D000A0938F02B0939002BF91AF919F918F9187
:1020E0001F901FBE1F9018952FB7F89480918D02F6
:1020F00090918E02A0918F02B09190022FBF08950F
:102100000E9474109C019091C0028091C102982B92
:1021100021F03093BE022093BD029091C2028091C3
:10212000C302982B21F03093BB022093BA02E091B6
:10213000A802F091A902309731F00480F581E02DDA
:102140008FEB92E009940895109287021092850215
:102150000E94940885E0EFEBF2E0DF011D928A9582
:10216000E9F71092BC021092B902109291020E94FB
:10217000801090E080E00E94720990E080E00C9472
:102180005C09CF92DF92EF92FF92CF93DF9300D062
:1021900000D0CDB7DEB70E94880C6B017C01809126
:1021A000D802882321F08091D902811115C0C092F4
:1021B000D402D092D502E092D602F092D7020E94C9
:1021C000A4100F900F900F900F90DF91CF91FF9080
:1021D000EF90DF90CF900895198282E08A83C70143
:1021E000B6010E9433088B838EEF8C8364E0CE01AE
:1021F00001960E947F06DBCF0F931F9341E050E0D2
:1022000060E070E004C0440F551F661F771F8A9579
:10221000D2F7CB01BA0160957095809590950091A9
:10222000D4021091D5022091D6023091D7026023BA
:102230007123822393231F910F910C94C1109091CD
:1022400084028095892380938402282F277071F45B
:10225000282F082E000C330B9217130639F08595A2
:10226000859585950E94FC101092840208950F9325
:102270001F9341E050E060E070E004C0440F551F40
:10228000661F771F8A95D2F78091D4029091D5026C
:10229000A091D602B091D7028A019B01082B192B7D
:1022A0002A2B3B2BC901B8011F910F910C94C1102F
:1022B0006093890270938A0280938B0290938C02C0
:1022C0000C94A4101092860280918401E8EDF1E054
:1022D000882359F08091A60287FF07C08EE1DF01B5
:1022E0001D928A95E9F70C94A41086E0F8CF1F930D
:1022F000CF93DF93CDB7DEB7AA970FB6F894DEBFC2
:102300000FBECDBF82E093E02091F100FC0121934C
:10231000CF01F3E08A309F07B9F78091030389303A
:1023200009F444C018F5823009F4B9C0833009F4C7
:102330006EC0813031F580910203813A11F58091B0
:10234000E800877F8093E80080910603909107035F
:10235000892B41F560E28EED92E070E00E941E064E
:102360008091E8008B778093E8000BC08B3009F4F4
:102370006BC008F483C0823409F4A2C0853409F428
:10238000BCC08091E80083FF50C28091020390910D
:1023900003039A3008F049C2E92FF0E0E25EF34D02
:1023A0000C94B82760E090E080E0D7CF80910203E2
:1023B000813239F78091060390910703009711F05D
:1023C0000297F9F68091E800877F8093E80080917A
:1023D000E80082FF17C09091F3008091F20002970D
:1023E00029F48091F1008B7F813021F48091F100FC
:1023F0008093DD028091E8008B778093E8000E9453
:102400000D05BFCF809100038111E1CFBACF80913C
:102410000203813A09F0B5CF80910603909107033A
:10242000892B09F0AECF8091E800877F8093E80088
:102430008091E80080FFFCCF809184018093F100BF
:102440008091E8008E77D9CF80910203813209F024
:1024500098CF8091060390910703892B09F091CFC3
:102460008091E800877F8093E8000E940D058091AD
:102470000403809384010E94621183CF8091020340
:10248000813209F07ECF8091E800877F8093E80059
:102490000E940D05809105038093DC0272CF80912C
:1024A0000203813A09F06DCF8091E800877F809325
:1024B000E8008091E80080FFFCCF8091DC02BECF75
:1024C00080910203803C09F05CCF809106039091DB
:1024D0000703029739F58091040390910503892B36
:1024E00009F58091E800877F8093E8006BE170E058
:1024F00084EC97E00E94BF0582CF80910203803C6C
:1025000009F03FCF8091060390910703079751F49C
:102510008091E800877F8093E80062EB70E082E1C1
:1025200097E0E8CF8091EB0080628093EB0029CFA9
:10253000803899F0823809F078C1809106038F7055
:10254000873008F072C18093E9008091EB0085FB31
:10255000882780F91092E90006C08091FE029091D0
:10256000FF02911182609091E800977F9093E800BC
:102570008093F1001092F1008091E8008E7751C1B4
:10258000882309F43FC1823009F04FC180910403D0
:10259000811142C1809106038F702FEF280F2630E2
:1025A00008F043C18093E9002091EB0020FF34C183
:1025B000933031F48091EB0080628093EB002CC16A
:1025C0009091EB0090619093EB0021E030E001C02E
:1025D000220F8A95EAF72093EA001092EA00809190
:1025E000EB008860EACF811120C1109104031F77AE
:1025F0008091E3008078812B8093E3008091E80054
:10260000877F8093E8000E940D058091E80080FF9D
:10261000FCCF8091E30080688093E30082E0111199
:1026200083E08093000301C18058823008F0FDC030
:1026300080910403909105038C3D23E09207A1F55E
:1026400083E08A838AE289834FB7F894DE01139688
:1026500020E03EE051E2E32FF0E050935700E49198
:1026600020FF03C0E295EF703F5FEF708E2F90E088
:10267000EA30C0F0C7968D939D932F5F243159F7B0
:102680004FBF8091E800877F8093E8006AE270E0A6
:10269000CE0101960E941E068091E8008B77809300
:1026A000E800C3C0C096E7CF20910603309107032E
:1026B000492F55274330510551F1A0F441305105C0
:1026C00009F459C06BE670E080EE97E042305105A6
:1026D00009F0ABC02091E800277F2093E8000E941A
:1026E000BF05DACF4132510539F14232510591F13E
:1026F0004F30510509F099C0EDEAF8E0649170E0BF
:102700008BEA98E06115710509F48FC0E3CF992732
:102710008130910571F0009731F0029709F085C082
:10272000EDE5F8E002C0E7EAF8E0649170E0CF017F
:10273000E9CFE5E7F8E0F9CF2330310508F075C0BF
:10274000220F331FF901E053FE4F8081918169E030
:1027500070E0C0CF2330310508F067C0F901EE0FFB
:10276000FF1FE653FE4F8081918129533E4FF901AF
:10277000608170E0C7CF62E170E08BE498E0AACF9F
:10278000803809F052C08091E800877F8093E8008C
:10279000809101038093F100EFCE811146C010912A
:1027A0000403123008F041C08091E800877F8093D5
:1027B000E800109301030E940D05112311F084E03D
:1027C00005C08091E30087FDFACF81E0809300038C
:1027D00042E061EC81E00E942C0542E061EC82E085
:1027E0000E942C0542E261EC83E00E942C0542E34A
:1027F00061EC84E00E942C0542E360EC85E00E94DD
:102800002C0513C080910403813079F481E093306A
:1028100009F080E08093FF021092E9008091E800C7
:10282000877F8093E8000E940D058091E80083FF78
:102830000AC08091E800877F8093E8008091EB00D8
:1028400080628093EB00AA960FB6F894DEBF0FBEAD
:10285000CDBFDF91CF911F9108951F920F920FB6B8
:102860000F9211242F933F934F935F936F937F9316
:102870008F939F93AF93BF93CF93DF93EF93FF9388
:10288000D091E900DF708091EC00C82FC17080FD0D
:10289000C0E81092E9008091F000877F8093F000FB
:1028A00078940E9477111092E9008091F00088607E
:1028B0008093F000CD2BCF70C093E900FF91EF9192
:1028C000DF91CF91BF91AF919F918F917F916F9148
:1028D0005F914F913F912F910F900FBE0F901F90DE
:1028E0001895882379F19CEF980F913A38F4682F66
:1028F00086ED91E00E94D4070C94940890E2980F22
:10290000983050F4877091E001C0990F8A95EAF7EA
:10291000892F0E948D08F0CF9BE5980F933020F40B
:1029200090E080E00C94720998E5980F973120F4BC
:1029300090E080E00C945C09803F20F00E949606B5
:102940000C9480100895CF93DF93EC010E947114D2
:10295000CE01805E91096BE479E0089710F06AE39C
:1029600079E0CE01DF91CF910C94490C8FE39CE983
:102970000197F1F700C0000080910002823079F0E9
:1029800028F4813039F0109200020895833011F05C
:102990008530C9F780E390E00E94A314F4CF8BE266
:1029A00091E0FACF8FE39CE90197F1F700C00000B6
:1029B0008091FE01823079F028F4813039F0109254
:1029C000FE010895833011F08530C9F78FE290E061
:1029D0000E94A314F4CF8BE293E0FACF8FE39CE93B
:1029E0000197F1F700C000008091FC01823079F07E
:1029F00028F4813039F01092FC010895833011F0F1
:102A00008530C9F780E390E00E94A314F4CF80E3FF
:102A10009AE0FACF8FE39CE90197F1F700C000003C
:102A20008091FA01833021F0853011F0813021F45A
:102A30008CE298E00E94A3141092FA0108958FE3AB
:102A40009CE90197F1F700C000008091F801823005
:102A500079F028F4813039F01092F801089583302C
:102A600011F08530C9F78FE290E00E94A314F4CFF3
:102A70008FE29AE0FACFCF93C82F882309F46EC073
:102A80008CEF8C0F813AB8F580918401882311F185
:102A90008091A60287FF1EC0EC2FE695E695E6958D
:102AA000F0E0EA52FE4F828190E04C2F477021E027
:102AB00030E002C0220F331F4A95E2F782239323AE
:102AC000892B89F06C2F86ED91E00E94D4070E943B
:102AD000940809C0E8EDF1E08191C81799F381E00D
:102AE000EE3DF807C9F76C2F86ED91E00E94FE07D6
:102AF000CF910C94940880E28C0F883068F4C770F2
:102B000021E030E001C0220FCA95EAF780918602E9
:102B1000822B80938602ECCFEBE5EC0FE33040F4A0
:102B2000F0E0EA56FE4F808190E0CF910C9472095C
:102B3000E8E5EC0FE73150F4F0E0EE0FFF1FE75649
:102B4000FE4F80819181CF910C945C09C03F30F0A1
:102B50008C2F0E945D07CF910C948010CF91089527
:102B6000CF93C82F0E943B15C93349F42FEF87EE4E
:102B700093E0215080409040E1F700C000008C2F8E
:102B8000CF910C9471140F931F93CF93DF93C62FA3
:102B9000D42F022FFC0182818823A1F060930C03C3
:102BA0000E94741090930B0380930A03C77081E016
:102BB00001C0880FCA95EAF7DF91CF911F910F915D
:102BC0000C94520980910C03681335C080910A035C
:102BD00090910B030E94C507883C910560F510E2B7
:102BE0001D0FCD17B9F080E28C0F883040F4C7700C
:102BF00081E001C0880FCA95EAF70E944B0918309E
:102C000048F481E09D2F977001C0880F9A95EAF7EC
:102C10000E945209802F0E94B015183098F4D77086
:102C200081E001C0880FDA95EAF7DF91CF911F911B
:102C30000F910C944B09C77081E001C0880FCA95B1
:102C4000EAF7F3CFDF91CF911F910F9108950F9382
:102C50001F93CF93DF938C01EB018091770182FF6B
:102C60002DC08B7F809377018091120220911002FA
:102C700030911102AB01421B530B20917501309131
:102C800076014217530778F40E943B158091770133
:102C90008D7F80937701809112020E94711482E0EF
:102CA0000E94860815C090918702926090938702D7
:102CB0000E943B15809177018260EBCF802F0E94AC
:102CC000711480911202909113020817190739F3B9
:102CD0000E949408D0931102C0931002DF91CF910B
:102CE0001F910F910895FF920F931F93CF93DF933E
:102CF000E82FF0E0EA53FE4FF490C82FC695C69532
:102D0000C695D0E0FE01EA54FE4F0491877010E0B2
:102D1000082E02C0159507950A94E2F70170112755
:102D2000CA55DE4FFE01C491D0E002C0D595C795CB
:102D30008A95E2F7C170DD270115110519F081EEC2
:102D40000E943B15209719F086EE0E943B158F2DAF
:102D50000E94B015CD2B19F086EE0E947114012B44
:102D600041F081EEDF91CF911F910F91FF900C9474
:102D70007114DF91CF911F910F91FF900895FF92F1
:102D80000F931F93CF93DF938C018AE0F82EF80105
:102D90008491882309F44BC0813009F044C0E801D4
:102DA0002196FE018491813049F42196FE0184919F
:102DB0000E94B0158E010F5F1F4FE9CF823039F4AA
:102DC000E8012296FE0184910E943B15F3CF8330E7
:102DD00039F4E8012296FE0184910E947114EACF31
:102DE000843041F7E8012296FE01249190E080E0D2
:102DF000FE0131962053330B2A30310548F00197FC
:102E0000C8F2EFE9FFE03197F1F700C00000F7CF1B
:102E1000F89EA001F99E500D1124C901840F951F41
:102E20002491EF01E5CF0E947316E801C3CFDF9133
:102E3000CF911F910F91FF900895CF93DF93EC01F5
:102E4000805E910962E579E0089710F061E479E02D
:102E5000CE010E94490C8C2FDF91CF910C943B1531
:102E6000CF93DF93EC010E941D17CE01DF91CF912C
:102E70000C94A314CF93DF93EC018881833061F429
:102E800080E390E00E94301780E390E00E943017CA
:102E900080E390E00E9430178881843030F080E336
:102EA00090E0DF91CF910C943017DF91CF9108958E
:102EB0000C943A17CF93DF93EC018881833061F44F
:102EC0008CE298E00E9430178CE298E00E94301764
:102ED0008CE298E00E9430178881843030F08CE2D8
:102EE00098E0DF91CF910C943017DF91CF91089546
:102EF000CF93DF93EC018881833061F48FE290E01F
:102F00000E9430178FE290E00E9430178FE290E02D
:102F10000E9430178881843030F08FE290E0DF919A
:102F2000CF910C943017DF91CF9108950C947817BE
:102F30000E94570C80930002823049F018F48130CF
:102F400071F00895833039F0853061F008958BE297
:102F500091E00C941D1780E390E00E941D1780E320
:102F600090E0F7CF80E390E00E943017F8CF0E9406
:102F7000570C8093FE01823049F018F4813071F0D3
:102F80000895833039F0853061F008958BE293E045
:102F90000C941D178FE290E00E941D178FE290E0C5
:102FA000F7CF8FE290E00E943017F8CF0E94570CC5
:102FB0008093FC01823049F018F4813071F008955B
:102FC000833039F0853061F0089580E39AE00C9405
:102FD0001D1780E390E00E941D1780E390E0F7CF7B
:102FE00080E390E00E943017F8CF0E94570C809346
:102FF000FA01833041F0853059F0813071F48CE270
:1030000098E00C941D178CE298E00E941D17F7CFF2
:103010008CE298E00E943017F2CF08950E94570C7E
:103020008093F801823049F018F4813071F00895EE
:10303000833039F0853061F008958FE29AE00C9486
:103040001D178FE290E00E941D178FE290E0F7CFEE
:103050008FE290E00E943017F8CF4F925F926F920C
:103060007F928F929F92AF92BF92CF92DF92EF9218
:10307000FF920F931F93CF93DF93CDB7DEB72897BF
:103080000FB6F894DEBF0FBECDBF7C01DC011396F6
:103090008D919C911497892B41F01C911196DC9095
:1030A000812F8D218F3F09F078C628960FB6F894AE
:1030B000DEBF0FBECDBFDF91CF911F910F91FF906B
:1030C000EF90DF90CF90BF90AF909F908F907F90C8
:1030D0006F905F904F9008950E94D90B082F682F32
:1030E00089819A810E940209E12FF0E0B6E0DB9E1F
:1030F000E00DF11D112424E5029FE00DF11D1124C6
:10310000EE0FFF1FE658FD4F05911491D70112965F
:103110008C918111EEC08091D80281112AC10A32AE
:10312000BDE51B0709F041C1F70182818823C9F180
:103130008091940291E0980F9770887F953008F401
:10314000892B80939402809194028770FFEF8F9F68
:10315000C00111249595879595958795992790930A
:1031600089008093880090938B0080938A009093CD
:103170008D0080938C004091940250919502609153
:103180009602709197028FE090E00E941B28609158
:10319000D4027091D5028091D6029091D7020E94FC
:1031A000880CC80197558F3F910511F008F047C072
:1031B00020917401022E000C330B2817390714F4E8
:1031C00080937401F701228136E1389F4001399FD5
:1031D000900C1124C4018A5F9E4F6C01DC01509653
:1031E0002C935097928116968C911697992309F4F7
:1031F00013C11A961C930E9319978F5F16968C9392
:103200000E947410F60196878587809188028783D3
:103210008091870290918602892B80870190F081AE
:10322000E02D309741F0D60154966D917C91C40108
:10323000845F9E4F099510930F0200930E020E9427
:1032400074106C01D70112968C91882311F1809132
:10325000770182FF05C0B60190E080E00E9427164A
:1032600082E00E9486080931BCE51B0709F459C1B8
:1032700008F0E0C00731FCE51F0709F448C1809160
:10328000750190917601059708312CE5120709F434
:1032900043C1C8014E970A9708F0B3C1D7011296EF
:1032A0008C91882309F4A8C18091770180FFE1C047
:1032B000909186029111DDC01093130200931202C7
:1032C000D0921102C092100284608093770182E054
:1032D0000E941F1180918402877009F4E6CED70105
:1032E00012968C91882309F4E0CE82E00E941F118F
:1032F000DCCE809174018F3F09F40DCF76E0C72EAC
:1033000071E0D72E912C812C7724739480917401D5
:10331000082E000C990B881599050CF4FCCEF601CB
:1033200086818823F9F0818592858017910739F489
:1033300080910E0290910F028017910799F0D601AB
:103340001F967C921F971C961C930E931B97519669
:103350008C91811103C0C6010E949409C601069692
:103360000E94B509BFEF8B1A9B0AE6E1CE0ED11C75
:10337000CDCF8091D902882309F4D1CE1982D7010B
:1033800012968C9181110FC082E18A83D7018C91B2
:103390008B8311968C918C838EEF8D8365E0C501B4
:1033A0000E947F06BCCE81E1F0CF0E322DE51207E0
:1033B00011F178F40D328DE5180709F0F2CEF7011E
:1033C0008281882309F4EDCE8AE692E00E94BF163E
:1033D000E8CE0F329DE51907B9F00033ADE51A07C5
:1033E00009F0DFCED70112968C91882309F4D9CE4B
:1033F00086E492E0EBCFD70112968C91882309F4F2
:10340000D0CE80E692E0E2CFF7018281882309F4F2
:10341000C8CE80E592E0DACF882309F410CFF60118
:103420008189882309F40BCFC401845F9E4F0E94D9
:10343000B50905CF0B313CE51307B1F070F0809171
:1034400077018E7F0C319CE5190709F022CF80931C
:10345000770182E00E9486080CC090917701892F45
:103460008E7F90FF8160F3CF8091770181608093A0
:103470007701F7018281882309F4A5C410920C0317
:103480000230FCE51F0708F4C9C106312CE512071C
:1034900038F098012B5F3C452730310508F0BEC15C
:1034A0000E94D80C9093A7028093A6020F303CE5AF
:1034B000130709F494C108F011C108309CE51907FD
:1034C00009F477C108F0E4C00430BCE51B0709F437
:1034D00060C108F0D0C00230FCE51F0709F455C1F7
:1034E0008091A602826003301C4509F4E3C060911C
:1034F000A6021091A70284E090E00E940928612FA3
:1035000081E290E00E9409280E946211E3CE80913E
:1035100075019091760105969093760180937501DF
:10352000A8CF809176018F93809175018F9385E864
:1035300091E09F938F931F9288E08F93BF92AF92F9
:103540000E9468290FB6F894DEBF0FBECDBF65019B
:103550005AE0952EF6018081882309F48ACF8130C4
:1035600009F047C091818281913049F4F2E0CF0E99
:10357000D11C0E94B0152FEFC21AD20AEBCF9230A5
:1035800031F422E0C20ED11C0E943B15F4CF9330DF
:1035900031F432E0C30ED11C0E947114ECCF943090
:1035A00021F08FEFC81AD80AE6CF92E0C90ED11CDD
:1035B00030E020E0A6014F5F5F4F8053990B8A30C7
:1035C000910550F021503109B0F2EFE9FFE0319759
:1035D000F1F700C00000F6CF929EB001939E700DEF
:1035E00011249C01260F371FD60111968C916A0178
:1035F000E1CF0E947316BFCFB601C8010E94271603
:1036000069CE043FBCE51B0739F188F4093DFCE5B0
:103610001F07F1F00A3D2CE5120751F1083D3CE58A
:10362000130709F026CF26E241EE61EE0DC0063FFA
:103630008CE51807C9F0A0F027E245EE66EE073FDB
:10364000ACE51A0709F015CFC7010E94C31542CE99
:1036500027E245EE65EEF8CF26E241EE60EEF4CFCC
:1036600027E245EE64EEF0CF26E241EE62EEECCFCB
:1036700028E241E0EFCF8091A602806106303CE570
:103680001307C1F008F489C08091A602806212C0BD
:103690000B309CE5190709F49AC078F40930BCE5B1
:1036A0001B0709F48AC08091A6028C600A301C4571
:1036B00009F01DCF8093A6021ACF8091A6028B7FBE
:1036C0000D30FCE51F07B1F38091A6028D7F0E300F
:1036D0001C4580F38091A602877FECCF0B3F3CE531
:1036E000130709F45EC048F502319CE5190709F497
:1036F0007EC060F40031BCE51B0709F474C0809102
:10370000A6028F7B01311C45A9F2F1CE0431FCE504
:103710001F0709F47AC008F470C005311C4509F090
:10372000E6CE8091A60282FB992790F921E09227AC
:1037300090FB82F990FB83F9BDCF0E3F8CE5180713
:1037400009F449C070F40C3FACE51A0771F180919F
:10375000A7028E7F0D3F1C4509F0C9CE8093A702BA
:10376000C6CE0115EDE51E0709F44BC060F101302E
:103770001D4509F0BCCE8091A702982F90959170BD
:103780008E7F892B90FB81F9E9CF8091A602816021
:1037900091CF8091A60284608DCF8091A60288602F
:1037A00089CF8091A7028160D9CF8091A7028260E2
:1037B000D5CF8091A60280647DCF0E946211809156
:1037C000A602806877CF8091A7028360C7CF8091DF
:1037D000A6028E7F6FCF8091A7028D7FBFCF809191
:1037E000A6028F7E67CF8091A6028F7D63CF0E9455
:1037F00062118091A6028F775DCF8091A602837FB0
:1038000059CF8091A7028C7FA9CF0E94621190911D
:10381000A602892F97FB87F980584CCF06313CE5EB
:10382000130709F0DEC2809186028A7A91E009F4DA
:1038300090E09093140269E2811165E386ED91E0D6
:103840000E94FE070E94940845CD0E94FC0D42CDC7
:103850008091DA0291E089278093DA023BCDF7016B
:1038600000811181882309F440C0C8010E94D90B4E
:10387000D82E682FC8010E940209B8018D2D0E9420
:103880003D0A8C01682ED70115968C90159782946D
:103890004FE084221296DC90D11010928702809122
:1038A0008402877099F0DD2089F0812F807F803439
:1038B00021F080E2800F883048F082E00E941F11E2
:1038C000809184028770CC24C3948111C12C912EE5
:1038D00092943FE09322BBE0B91508F43DC0E92D76
:1038E000F0E0E85DF34D0C94B827C8010E94D908B8
:1038F000D82EC3CFE12FEF708E2E107F19F0829457
:1039000020EF8222DD20C9F0882069F080E2800F5C
:10391000883010F061100BC080918602882A809256
:1039200086020E949408802F0E943B1515C080914A
:103930008702882A80928702F4CF802F0E94711418
:10394000882051F0005E882D083010F0611041C0D1
:103950000E948D080E949408A92DA850BB0B1497B3
:1039600010F40E948809CC20A9F08091840280FD87
:1039700011C0F70112828595859585950E943711B2
:10398000C7010E942D1880918402859585958595A3
:103990000E94FC1085E0F701D50101900D928A95F7
:1039A000E1F789819A810E94D9089A81E981F0E042
:1039B00026E0929FE00DF11D112434E5839FE00D78
:1039C000F11D1124EE0FFF1FE658FD4F85919491D4
:1039D0006CCB0E948608BECFF12FFF707F2E107F28
:1039E000103219F0729490EF7922662041F021E0B4
:1039F000621631F1DD2079F1882041F194CFDD208C
:103A000091F090918802872D892B811003C00E942C
:103A10005209A2CF31E08312FACF981709F49CCF54
:103A20008093880299CF811006C00E948008872D5C
:103A30000E944B0991CF81E0881609F48DCFF5CF14
:103A4000DD2031F091E0981508F486CF872DDFCF87
:103A5000811082CFECCF882051F3A9E36A1209C00C
:103A6000BFEFE7EEF3E0B150E040F040E1F700C017
:103A70000000802F0E9471146FCF812F869586954C
:103A8000837061F0813009F067CFC8019370D11065
:103A900002C090E080E00E945C095ECFC801937094
:103AA000D11002C090E080E00E94720955CF802FB3
:103AB000DD2029F00E945D070E9480104DCF0E94FA
:103AC0009606FACF812F837009F066C0D11044CFDB
:103AD000802F829586958770880F880F602F6F7072
:103AE000462E512C712C612C082E04C0440C551C00
:103AF000661C771C0A94D2F740E050E0BA0104FF3C
:103B00000FC04FE050E060E070E004C0440F551F6C
:103B1000661F771F8A95D2F74095509560957095EE
:103B2000812F869586958370823019F1D8F40091A3
:103B3000890210918A0220918B0230918C0281308F
:103B400069F04429552966297729CB01BA016023F8
:103B50007123822393230E945811FECE402A512ABA
:103B6000622A732ACB01BA0164297529862997290B
:103B7000F2CF4429552966297729009189021091AD
:103B80008A0220918B0230918C02CB01BA0160270E
:103B9000712782279327DFCF8695DD2011F0812FB3
:103BA0008170882309F4D8CE802F829586958770FE
:103BB000880F880F602F6F70462E512C712C612C4E
:103BC000082E04C0440C551C661C771C0A94D2F7BE
:103BD00040E050E0BA0104FF0FC04FE050E060E069
:103BE00070E004C0440F551F661F771F8A95D2F7F7
:103BF0004095509560957095812F86958695837038
:103C0000823019F1D8F40091D4021091D50220919C
:103C1000D6023091D702813069F0442955296629AE
:103C20007729CB01BA0160237123822393230E9459
:103C3000C11092CE402A512A622A732ACB01BA01BE
:103C40006429752986299729F2CF4429552966299F
:103C500077290091D4021091D5022091D60230919B
:103C6000D702CB01BA016027712782279327DFCFC4
:103C70001F70DD2029F0812F0E943711802FC7CEC1
:103C8000802F0E944B09812F0E94FC1065CE802F4F
:103C900022EF621609F44EC0261578F030EF631655
:103CA00019F191EF691609F43DC0DD2009F465C0F2
:103CB000811039CE812F8F713AC0A3EF6A1609F4B3
:103CC0003EC0B4EF6B12F1CFDD2009F44BC01F7181
:103CD000812F0E943711F8E01F9FC00111248360DB
:103CE00080938402812F23C0DD20B9F0811034CE6F
:103CF0001F7161E070E080E090E004C0660F771F04
:103D0000881F991F1A95D2F70091D4021091D502FD
:103D10002091D6023091D702A6CFE1E0E81508F451
:103D20001BCEE6CF812F8F71DD2009F4ADCF0E942D
:103D3000371112CE812F8F71DD20C9F3A5CF60E03E
:103D400070E0CB01DD2009F472CF1F7161E070E0FB
:103D500080E090E004C0660F771F881F991F1A95B6
:103D6000D2F765CF81E00E941F1121E0281508F0ED
:103D7000F3CD82E00E941F11EFCD882059F08933E6
:103D800009F077CE3FEF87EE93E0315080409040CE
:103D9000E1F76DCE812F8F7177CF85E0F7019E011E
:103DA0002F5F3F4F5901D90101900D928A95E1F79C
:103DB000D70112962C9189819A8121118DC90E9477
:103DC000D908082F91C906311C4509F048CD8091CA
:103DD000140269E2811165E386ED91E00E94D40747
:103DE00031CD0F3DECE51E0709F42FCD0930FDE57F
:103DF0001F0709F42DCD01151C4509F030CD0E9497
:103E000062118FEF94E3ACE081509040A040E1F765
:103E100000C00000F89481E08093E00080E280938D
:103E2000D8001092C900EFE1FEE43197F1F700C02D
:103E300000001DBA109268001CBC10BE1FBA109280
:103E40007A0010926E0010926F0010927100109222
:103E500072001092C9001092BC0014B817B81AB8BA
:103E60001DB810BA1092BC0015B818B81BB81EB80F
:103E700011BA0C94003F2ECA1F93CF93DF93809109
:103E80001A02807FA9F480911702882389F080911B
:103E90004C02D0911B026091150270911602A09104
:103EA0001802B0911902C62FC72316E0D81304C018
:103EB000DF91CF911F91089590E0109711F0CF3FBF
:103EC00019F401968770F2CF189F9001199F300D59
:103ED0001124F901E45EFD4F41814713F2CF408187
:103EE0004613EFCF42814111ECCF438154814A1BED
:103EF0005B0B483C510528F780911A028F70806156
:103F000080931A02F901EF5DFD4F80818F7080610F
:103F1000808385E192E00E942D18DF91CF911F915F
:103F20000C943009AF92BF92CF92DF92EF92FF9242
:103F30000F931F93CF93DF93CDB7DEB761970FB683
:103F4000F894DEBF0FBECDBF8C0185E0F801DE0125
:103F50001D9601900D928A95E1F7F801808191817B
:103F6000E28025E1A22E22E0B22E6091180270912B
:103F700019026115710509F43EC130911502409195
:103F80001602232F24232F3F09F435C1C380D48088
:103F9000F0901702F601E61BF70BFF2009F4FBC0B7
:103FA00020911A02522F507FE83CF10508F0BBC067
:103FB000511178C0FE2C491321C038131FC0E110E5
:103FC0001DC02F70206120931A02C5010E942D1878
:103FD00080911A02F80185838F2D61960FB6F894AF
:103FE000DEBF0FBECDBFDF91CF911F910F91FF902C
:103FF000EF90DF90CF90BF90AF900895CD2829F03B
:10400000282F29232F3F09F014C120E0F22FF1704F
:10401000DF2E20FF3DC020914C0240911B0256E054
:10402000241315C08D879E878D859E850E941B0C4D
:10403000292F22952F702230F8F0243020F59F7020
:10404000F9F0F8019581907FD9F4D12C1FC030E0B0
:10405000529FF001539FF00D1124E45EFD4F6181EA
:10406000961306C06081861303C06281E61210C0F9
:104070002F5F3F4F2770D4CF9F7011F0882329F313
:10408000805E883010F3C8010E942D18FD2CA4CF4B
:10409000EE2009F4A1CF80911A02816080931A0268
:1040A000F12C9ACF491312C0381310C0E1100EC082
:1040B000F8012583C8010E942D1886E0F801A5E1CA
:1040C000B2E001900D928A95E1F786CF8D879E87A9
:1040D0008D859E850E94250C882309F1EE20F9F03C
:1040E00080911A02803270F02091150230911602F0
:1040F00038872F831986DB86CA868C87CE01079680
:104100000E942D1886E0F801A5E1B2E001900D9221
:104110008A95E1F70E943C1FFF24F3945DCFC8010C
:104120000E942D18F9CF51110AC085E192E00E943A
:104130002D1886E0F50111928A95E9F7B1CF491360
:104140000FC038130DC0E1100BC0F8012583C80162
:104150000E942D1886E0F50111928A95E9F73CCF6F
:104160008D879E878D859E850E94250C8823B9F2B8
:10417000EE20A9F280911A02803220F220911502DD
:10418000309116023A8329831B82DD82CC828E8392
:10419000CE010196B5CFE83CF105E0F6FE2CEE200D
:1041A00009F4BDCF491316C0381314C080911A0208
:1041B00080FD83CF982F907F09F47FCFF80185830E
:1041C000903F09F477CF982F907F905F8F70892B65
:1041D000858370CF8D879E878D859E850E94250C57
:1041E000811190CF80911A02816080931A02C801D8
:1041F0000E942D18F1CEEE2009F491CF8D879E8775
:104200008D859E850E94250CF82E882309F487CF82
:1042100086E0F801A5E1B2E001900D928A95E1F700
:1042200080911502909116020E941B0C0E943C1F67
:10423000D3CE21E02E25EACE1F93CF93DF93CDB7C7
:10424000DEB767970FB6F894DEBF0FBECDBF4B8BBE
:104250005C8B6D8B7E8B8F8B1A8A198A85E0FE01B1
:104260007396DE011D9601900D928A95E1F786E026
:10427000FE013D96DE01179601900D928A95E1F7B9
:10428000CE0107960E94921F811112C086E0FE01A6
:104290003796DE01119601900D928A95E1F78A8595
:1042A0009B85892B29F08F81988589238F3FB1F5D4
:1042B00016E080914C0290911B0289131DC06796F5
:1042C0000FB6F894DEBF0FBECDBFDF91CF911F9127
:1042D000089596E0929FD001939FB00D1124A45EA3
:1042E000BD4FFE01319601900D929A95E1F78093B2
:1042F0001B020E943009DCCF819FC0011124845E23
:104300009D4F0E94921F8823D1F280914C0290E031
:1043100001968770992780934C02CBCF20911B0286
:1043200030E0C90101968770992740914C024817E7
:10433000190679F60E94621110921B0210924C022B
:1043400086E0E5E1F2E0DF011D928A95E9F7B0CF62
:104350008F929F92BF92CF92DF92EF92FF920F9334
:104360001F93CF93DF938091780190917901892BEE
:1043700091F0809101028F5F8093010281110BC047
:104380000E94CB0E90E09093790180937801892B65
:1043900011F40E94820DE8E98E2EE2E09E2E740157
:1043A00010E000E077E0C72EC00E802F0E94770E4D
:1043B0008C2D0E94770E802F0E94420FE701999169
:1043C0007E01D12C891729F0FE0131978083DD24ED
:1043D000D3948C2D0E94420FF7019681891709F41E
:1043E0007CC0868381E08D29182B0E94BC0C0F5F56
:1043F0000730C1F60E9474106091030270910402AC
:1044000090930402809303022091020230E0261B65
:10441000370B820F931F6BEF70E00E949027E82EFE
:10442000392F082F80930202F0900602FF2009F432
:10443000E5C010920602E0919202F0919302AF0162
:10444000425F5F4F20E06BEFB62E6BEF70E0A19103
:10445000AB3FA1F0CA2ED12C8E2D932F0A1708F452
:104460003EC08C199D09092E000CAA0BBB0B0A97A4
:10447000A105B105D0F1DF011197BC92E417F50752
:1044800031F720930602111102C02111B9C0109218
:104490000502A0919202B091930290910602EBEA7C
:1044A000F2E049EB52E080E03191E40129914E01C4
:1044B000321751F03C913B3FD1F40C93BF01615056
:1044C0007109EB01288391E011964E175F0761F7A0
:1044D000909306028093050297C080E084CFDB01B1
:1044E000AC19BD098A0F9B1FBECF2F2DC7CF81E00E
:1044F000EBCFF29EF001F39EF00D1124EA5FFE4F28
:10450000C288D388C114D10419F498ECC92ED12CD7
:10451000F29EE001F39ED00D1124CA5FDE4F8E8122
:104520008823B9F08D859E850E94C507C816D906D7
:1045300080F40F9D600111248989811105C0C60195
:104540008A5F9E4F0E949409C601845F9E4F0E941D
:10455000B5090F5F202F30E080917401082E000C08
:10456000990B821793072CF654C000E086E1F82ED1
:10457000F1CF9170892B09F479C080910802909154
:1045800009028130984780F01092DA026091D402DB
:104590007091D5028091D6029091D7020E94880C2A
:1045A000109209021092080280910802909109026B
:1045B00001969093090280930802812FDF91CF9199
:1045C0001F910F91FF90EF90DF90CF90BF909F9041
:1045D0008F9008950E94820C50C0892B71F3109225
:1045E0000902109208026091D4027091D502809164
:1045F000D6029091D7020E94880CDFCF111147CFCD
:1046000080910502811143CF809174018F3F09F0A1
:10461000ACCF8091770182FF17C00E947410209167
:10462000100230911102AC01421B530B2091750115
:10463000309176014217530738F0BC018091120285
:10464000909113020E94271680910802909109020E
:104650002091DA02222309F4C0CF009709F089CF14
:104660000E94790C0E94760C0E94730CC091070284
:10467000CC2309F4AFCF0E94760C81E0C827C09309
:1046800007027BCFCDB7DEB7C955D1090FB6F89475
:10469000DEBF0FBECDBF84B7877F84BF0FB6F8944F
:1046A000A8958091600088618093600010926000FE
:1046B0000FBE80E890E00FB6F8948093610090936D
:1046C00061000FBE85B7806885BF85B7806885BFEC
:1046D0000E9491040E945E058091E20084608093B4
:1046E000E2007894809100038823A1F01091E90002
:1046F0001F709091EC00892F817090FD80E8182B3D
:104700001092E9008091E80083FD0E9477111F70EC
:104710001093E90082E084BD93E095BD9AEF97BDC8
:1047200080936E000E94CB0E90E09093790180936D
:1047300078010E94BC0C0E94CB0CE8E9F2E06BEA25
:10474000662E62E0762E86EA92E0D30111921D92E7
:104750008E179F07D9F78EE090E00E943D28809346
:10476000920290939302FC010E962BEF21938E17E9
:104770009F07E1F790E080E00E9403288F3E9E4F64
:1047800011F00E94FC0D89EA8093800089E08093FB
:10479000810024982C983F988AB18F7C8AB96E98B2
:1047A000479A8BB180638BB9769A8FE090E00E9434
:1047B000FD276093940270939502809396029093E4
:1047C000970267704FEF649FB0011124759567954C
:1047D000759567957727709389006093880070932B
:1047E0008B0060938A0070938D0060938C000E9410
:1047F000820D90E080E00E9403288F3E9E4F11F0D2
:104800000E94FC0D82E090E00E94F5278093C50293
:104810000E94D80C9093A7028093A60283E090E0B8
:104820000E94F527682F70E090E080E00E94581108
:104830006091D4027091D5028091D6029091D702F6
:104840000E94880C8AE791E09093A9028093A802C5
:1048500028E1C22ED12C39EBA32E32E0B32E41E455
:10486000842E912C8C0E9D1EF2E08F0E911C809157
:104870000003853081F480E4F82E9EE0E92EE60CFA
:1048800000E112E180910003853009F452C10E94D9
:1048900062110E9488090E94A821E6ECF2E0ABEACE
:1048A000B2E010E000E0302F8D912191281709F43B
:1048B0008AC190E0FF24F3942827422F4F2109F466
:1048C0007DC161969FAF619762963FAF62978F21DE
:1048D00091E009F490E063969FAF63970E94741093
:1048E0008160782F65969FAF8EAF659761964FADCB
:1048F000619762965FAD629763966FAD63976596B9
:104900008FAD65970E941C21F801EA53FD4F80810D
:10491000F826F08285E0EFEBF2E0DE0111960190DF
:104920000D928A95E1F7F090C002E090C1021091DB
:10493000C2020091C3021092C0021092C1021092F2
:10494000C2021092C3028F2D8E2909F448C08091B3
:10495000BD029091BE020E94C5079C019091BC02CD
:10496000992309F4F9C125313105C8F19F3F19F0A8
:104970009F5F9093BC02FF2059F00E9439079FEF80
:104980001F140CF491E0899F802D11248093C002A4
:10499000EE2059F00E9439079FEF1E140CF491E0AD
:1049A000899F802D11248093C1023091C00233234E
:1049B000B1F02091C102222391F045EB3403C001F4
:1049C0001124992309F426C19093C00245EB2403D6
:1049D00090011124332309F421C13093C102812FA6
:1049E000802B09F448C08091BA029091BB020E94CA
:1049F000C5079C019091B902992309F4A8C12531FA
:104A00003105C8F19F3F19F09F5F9093B9021123C0
:104A100059F00E9419079FEF11160CF491E0899F3D
:104A2000802D11248093C202002359F00E9419079F
:104A30009FEF10160CF491E0899F802D1124809334
:104A4000C3023091C2023323B1F02091C30222236A
:104A500091F045EB3403C0011124992309F4E2C01D
:104A60009093C20245EB240390011124332309F4EF
:104A7000DDC03093C3028091C0029091C102892BA6
:104A80009091C202892B9091C302892B11F00E9450
:104A9000801085E0FE013196AFEBB2E001900D92FF
:104AA0008A95E1F70E9488099091C402891721F044
:104AB0000E9488098093C40280910003843009F029
:104AC000D6CE85E08093E9008091E80082FFCFCECA
:104AD0008091E80090E085FF06C00E94B004882322
:104AE00009F4A8C091E08091E8008B778093E800FA
:104AF000992309F4BCCE19811111B8C08091DA0252
:104B0000882309F4CEC01092DA0281E08093D902A2
:104B100022961FAE229723961FAE23978EEF2496E0
:104B20008FAF249763E0CE018F5B9F4F0E947F067B
:104B30009ECE80910003843009F11092AA020FB634
:104B4000F894A895C09260000FBEF092600083B701
:104B5000817F846083BF83B7816083BF78948895A9
:104B600083B78E7F83BF0FB6F894A89580916000BD
:104B7000886180936000109260000FBE8091FF02F8
:104B8000882309F47FCE0E94CB0E90E090937901A8
:104B9000809378010E94BC0C0E94CB0CEBEAF2E0FF
:104BA0001192AE16BF06E1F70E94A821EBEAF2E0EF
:104BB00081918111B6C0EE12FBCF64CE9F5FFF0CD6
:104BC000963009F07ACE0F5F1F4F0E30110509F0B5
:104BD0006ACE8FEF66968FAF669767968FAF6797AF
:104BE00068961FAE68970E9474108160782F6A964D
:104BF0009FAF8EAF6A9766964FAD669767965FAD2B
:104C0000679768966FAD68976A968FAD6A970E94AE
:104C10001C2180CE81E08093C002D8CE81E08093B9
:104C2000C102DDCE81E08093C2021CCF81E080937F
:104C3000C30221CF00E410E0CE0101967C018091F7
:104C4000E80085FD0AC08091E8008B778093E8003A
:104C50000E94B004882399F345CF8091F100F701B9
:104C600081937F010150110951F73CCF1130C9F4F4
:104C700022961FAE229723961FAF23978CE0EAE877
:104C8000F1E0D40101900D928A95E1F78EEF6096E4
:104C90008FAF60976FE0CE018F5B9F4F0E947F06C2
:104CA000E6CD8091D9028823D1F1123041F0133042
:104CB000F9F081E022968FAF229761E034CF6091C6
:104CC000D4027091D5028091D6029091D7020E94B1
:104CD000330822961FAE229723961FAF2397249660
:104CE0008FAF24978EEF25968FAF259764E01BCF6B
:104CF0008A81813041F0882341F08230D1F681E011
:104D00008093D80202C01092D80222961FAE22973A
:104D100083E023968FAF23978091D802E0CF8FEF67
:104D2000C9CF09BD19BD09B400FEFDCF8091D800DF
:104D30008F7D8093D8008091E00082608093E000B6
:104D40008091E00081FDFCCF0E9462119BCD213952
:104D5000314008F059CE8FCE232B09F009CE3FCE3B
:104D60001F921FB61F9211248F939F93AF93BF93EF
:104D70008091AA02811113C080918D0290918E02C0
:104D8000A0918F02B09190024196A11DB11D809318
:104D90008D0290938E02A0938F02B0939002BF91E8
:104DA000AF919F918F911F901FBE1F9018951092E9
:104DB000B9008CE08093B8000895EF92FF920F93B2
:104DC0001F93CF93DF93182FEB011092BC0084EA5E
:104DD0008093BC000E9474107C018091BC0087FF0E
:104DE00027C08091B900887F883029F08091B90070
:104DF000887F8031D9F51093BB0084E88093BC0094
:104E00000E9474108C018091BC0087FF24C0209107
:104E1000B900287F90E080E02831B1F081E090E097
:104E2000203411F490E080E09195819591090CC0B7
:104E3000CF3FDC0791F20E9474108E199F098C17E6
:104E40009D0758F28EEF9FEFDF91CF911F910F9149
:104E5000FF90EF900895CF3FDC07A9F20E947410F5
:104E6000801B910B8C179D0770F2ECCF8FEF9FEF9B
:104E7000EBCF0F931F93CF93DF93EB018093BB0096
:104E800084E88093BC000E9474108C018091BC0067
:104E900087FF11C02091B900287F81E090E028327F
:104EA00011F490E080E0919581959109DF91CF9187
:104EB0001F910F910895CF3FDC0741F30E947410BA
:104EC000801B910B8C179D0708F38EEF9FEFEECFA1
:104ED0000F931F93CF93DF93EC0184E88093BC0082
:104EE0000E9474108C018091BC0087FF08C08091E3
:104EF000BB0090E0DF91CF911F910F910895CF3FBC
:104F0000DC0789F30E947410801B910B8C179D079E
:104F100050F38EEF9FEFEECF84E98093BC000895AD
:104F2000AA1BBB1B51E107C0AA1FBB1FA617B707CF
:104F300010F0A61BB70B881F991F5A95A9F78095EB
:104F40009095BC01CD01089597FB072E16F40094AF
:104F500007D077FD09D00E94902707FC05D03EF4CA
:104F6000909581959F4F0895709561957F4F089515
:104F7000EE0FFF1F0590F491E02D09942F923F92C0
:104F80004F925F926F927F928F929F92AF92BF9259
:104F9000CF92DF92EF92FF920F931F93CF93DF9305
:104FA000CDB7DEB7CA1BDB0B0FB6F894DEBF0FBE62
:104FB000CDBF09942A88398848885F846E847D84AF
:104FC0008C849B84AA84B984C884DF80EE80FD80B1
:104FD0000C811B81AA81B981CE0FD11D0FB6F89427
:104FE000DEBF0FBECDBFED010895F999FECF92BD92
:104FF00081BDF89A992780B50895A6E1B0E044E014
:1050000050E00C942F28A8E1B0E042E050E00C946E
:105010002F28262FF999FECF92BD81BDF89A0197CE
:1050200000B4021639F01FBA20BD0FB6F894FA9AF0
:10503000F99A0FBE08950396272F0E940A280E940E
:105040000928252F0E940A28242F0C940A2801964B
:10505000272F0E940A280C940928DC01CB01FC01AF
:10506000F999FECF06C0F2BDE1BDF89A319600B4C1
:105070000D9241505040B8F708950F931F93CF936E
:10508000DF938230910510F482E090E0E0910F030D
:10509000F091100330E020E0B0E0A0E0309799F408
:1050A0002115310509F447C0281B390B243031057F
:1050B000C0F58A819B816115710571F1FB019383B4
:1050C0008283FE0111C04081518102811381481702
:1050D0005907F8F04817590799F4109761F012969C
:1050E0000C93129713961C933296CF01DF91CF91B8
:1050F0001F910F91089500930F0310931003F4CFA5
:105100002115310519F04217530718F49A01BD0112
:10511000EF01DF01F801C2CF9093100380930F03DA
:10512000D0CFFE01E20FF31F8193919322503109FA
:1051300039832883DACF20910D0330910E03232B7E
:1051400041F4209102013091030130930E0320932A
:105150000D0320910001309101012115310541F429
:105160002DB73EB74091040150910501241B350B2A
:1051700040910D0350910E034217530708F0B5CF2D
:10518000241B350B2817390708F4AFCFBC016E5F1D
:105190007F4F2617370708F4A8CF640F751F709349
:1051A0000E0360930D03FA01819391939ECFCF93E9
:1051B000DF930097E9F0FC01329713821282C091CD
:1051C0000F03D0911003DE0130E020E02097A1F41E
:1051D00020813181820F931F20910D0330910E03A6
:1051E0002817390709F067C0F0930E03E0930D0309
:1051F000DF91CF910895DA01AE17BF0708F040C0E4
:1052000012964D915C9113979D014115510599F7A7
:10521000D9011396FC93EE9312974D915D91A40FD3
:10522000B51FEA17FB0779F4808191810296840FFC
:10523000951FD90111969C938E9382819381139629
:105240009C938E931297B0E0A0E08A819B81009797
:10525000B9F5FE0181919191E80FF91F80910D033D
:1052600090910E038E179F0719F6109761F5109213
:10527000100310920F03D0930E03C0930D03B8CF09
:10528000B383A28340815181840F951FA817B9076A
:1052900071F44E5F5F4F8D919C911197480F591F8C
:1052A0005183408312968D919C9193838283211523
:1052B000310509F0ADCFF0931003E0930F0398CFC1
:1052C000DE01EC01C2CF13961C921E921297D3CF2F
:1052D000AEE0B0E0EEE6F9E20C94CC270D891E8931
:1052E0008F89988D26E02C831A83098397FF02C04B
:1052F00080E090E801979E838D83AE01455E5F4F0D
:10530000698D7A8DCE0101960E9498294D815E812A
:1053100057FD0AC02F813885421753070CF49A01B4
:10532000020F131FF80110822E96E4E00C94E82778
:10533000ABE0B0E0EEE9F9E20C94BE277C013B0162
:105340008A01FC0117821682838181FFB9C19AE02C
:10535000292ECE0101965C01F7019381F30193FDA3
:10536000859193FF81913F01882309F446C18532DD
:1053700039F493FD859193FF81913F01853229F4A2
:10538000B70190E00E94792BE7CF912C412C512C52
:10539000FFE1F51538F08B3209F188F4803201F124
:1053A000833221F157FC3AC020ED280F2A3040F516
:1053B00056FE1FC0929C200D1124922E06C08D32E5
:1053C00091F0803379F7689450F8F30193FD85915B
:1053D00093FF81913F018111DBCF20C0689451F888
:1053E000689452F8F2CF689453F8EFCF689454F869
:1053F000ECCF429C200D1124422E689455F8E5CF45
:105400008E3229F456FCF9C0689456F8DECF8C36FB
:1054100019F4689457F8D9CF8836B9F2982F9F7D40
:1054200095549330C0F08336A1F18337C1F18335B1
:1054300009F05BC0F801C190D1908F01692D70E037
:1054400056FC02C06FEF7FEFC6010E94632B4C0138
:10545000689457F80AC00C5F1F4F2FE329838824F4
:105460008394912C6501E89457F853FC04C04814C8
:10547000190409F018F5342C8114910431F5332006
:1054800009F46ACFB70180E290E00E94792B3A9448
:10549000F6CFF801808189830E5F1F4FE0CFF801BE
:1054A000C190D1908F01692D70E056FC02C06FEF62
:1054B0007FEFC6010E946E2B4C01D5CFB70180E271
:1054C00090E00E94792B4A94D2CFF60157FC859147
:1054D00057FE81916F01B70190E00E94792B311046
:1054E0003A94F1E08F1A9108C7CF843619F08936C3
:1054F00009F074C0F80157FE6AC061917191819101
:1055000091918F01252D2F76D22E97FF09C090956E
:105510008095709561957F4F8F4F9F4F6894D7F816
:105520002AE030E0A5010E94A92BC82ECA188C2CB5
:105530005D2CD6FE0CC0E89450F8C91440F4D4FE9B
:1055400005C0D2FC03C0FD2DFE7E5F2E892C54FECB
:105550008FC0FE01EC0DF11D8081803309F081C008
:10556000252D297E522E852D8870382E53FC8FC014
:1055700050FE89C09C2C841418F44C0C942C981860
:1055800054FE8BC0B70180E390E00E94792B52FE5D
:1055900009C088E790E051FE02C088E590E0B701BD
:1055A0000E94792BC91408F484C0CA94D12C9FEFAF
:1055B000C91AD90ACA0CDB1CF60182916F01B70126
:1055C00090E00E94792BAC14BD04B1F758CF6191E3
:1055D0007191072E000C880B990B93CFD52CE89472
:1055E000D4F82AE030E0853739F1952D997FD92E0E
:1055F0008F3601F148F48835A9F0F701868197814B
:105600002B96E2E10C94DA27803749F08837A9F726
:10561000D4FE02C06894D2F820E130E00DC0689456
:10562000D4F8F6CF54FE03C0E92FE660DE2E20E169
:1056300032E002C028E030E0F801D7FE0DC06191F1
:105640007191819191918F01A5010E94A92BC82E82
:10565000CA18E894D7F86BCF6191719190E080E01F
:10566000F2CF52FC02C083947ECF839483947BCF8D
:10567000852D867809F477CFF6CFB70180E290E0E8
:105680000E94792B83948414C0F3312C79CF342C6D
:105690003818841408F474CFF8CF852D867809F46F
:1056A00081CF8BE251FE80E257FC8DE2B70190E0A2
:1056B00077CFB70180E390E00E94792B9A9472CF64
:1056C0008FEF9FEF9DCFFC0105906150704001105E
:1056D000D8F7809590958E0F9F1F0895FC0161501B
:1056E000704001900110D8F7809590958E0F9F1F04
:1056F00008950F931F93CF93DF93182F092FEB017A
:105700008B8181FD09C01FEF0FEF812F902FDF915B
:10571000CF911F910F91089582FF14C02E813F8178
:105720008C819D81281739073CF4E881F981CF01EC
:1057300001969983888310838E819F8101969F8330
:105740008E83E3CFE885F985812F0995892BA1F315
:10575000DACFFA01AA27283051F1203181F1E894FB
:105760006F936E7F6E5F7F4F8F4F9F4FAF4FB1E054
:105770003ED0B4E03CD0670F781F891F9A1FA11D4F
:10578000680F791F8A1F911DA11D6A0F711D811D50
:10579000911DA11D20D009F468943F912AE0269F15
:1057A00011243019305D3193DEF6CF010895462F74
:1057B0004770405D4193B3E00FD0C9F7F6CF462F55
:1057C0004F70405D4A3318F0495D31FD40524193BE
:1057D00002D0A9F7EACFB4E0A6959795879577957B
:1057E0006795BA95C9F700976105710508959B0102
:1057F000AC010A2E06945795479537952795BA958B
:10580000C9F7620F731F841F951FA01D0895F89498
:10581000FFCF340C340C3D0C3D0C3F0C3D0C3D0CCB
:105820003D0C340C340C440C3D0C3D0C440CA30CCE
:10583000AF0CB40CAD0CB20CB90CB70C9812C01272
:105840001514C0121514F31214131514C013CD132C
:105850007A1C7A1CEC1CEC1C3D1D571DAC1CAC1CAE
:08586000621D381E471E471EA1
:1058680000001103200078170E181F150000000013
:105878000000000000000000000000005A17F517A3
:105888000A150000000000000000000000000000F1
:1058980000003A17D617EE140000000000000000C0
:1058A80000000000000000009617B717D21400008F
:1058B8000000000000000000000000000000581771
:1058C8009817B61400000000000000000000000057
:1058D80000000000FF7D000120007C06420D210D24
:1058E8001D0D190D010A25640A004D6E5A774B2FBC
:1058F80035367A624200818283E200E900EA00B527
:1059080000B600B700CD008301CC008A0192019453
:10591800012102230224022502260227022A02B3B9
:1059280000B4006F007000404D6D66011901AC00B5
:06593800F2070B08240831
:00000001FF
